{
  "contractName": "DocumentSigner",
  "abi": [
    {
      "anonymous": false,
      "inputs": [
        {
          "indexed": true,
          "internalType": "string",
          "name": "documentHash",
          "type": "string"
        }
      ],
      "name": "DocumentAdded",
      "type": "event"
    },
    {
      "anonymous": false,
      "inputs": [
        {
          "indexed": false,
          "internalType": "string",
          "name": "documentHash",
          "type": "string"
        },
        {
          "indexed": true,
          "internalType": "address",
          "name": "signatoryAddress",
          "type": "address"
        }
      ],
      "name": "DocumentSigned",
      "type": "event"
    },
    {
      "anonymous": false,
      "inputs": [
        {
          "indexed": false,
          "internalType": "string",
          "name": "documentHash",
          "type": "string"
        },
        {
          "indexed": true,
          "internalType": "address",
          "name": "signatoryAddress",
          "type": "address"
        }
      ],
      "name": "SignatoryAdded",
      "type": "event"
    },
    {
      "constant": true,
      "inputs": [
        {
          "internalType": "string",
          "name": "",
          "type": "string"
        }
      ],
      "name": "documents",
      "outputs": [
        {
          "internalType": "string",
          "name": "documentHash",
          "type": "string"
        },
        {
          "internalType": "string",
          "name": "name",
          "type": "string"
        },
        {
          "internalType": "string",
          "name": "description",
          "type": "string"
        },
        {
          "internalType": "address",
          "name": "owner",
          "type": "address"
        }
      ],
      "payable": false,
      "stateMutability": "view",
      "type": "function"
    },
    {
      "constant": false,
      "inputs": [
        {
          "internalType": "string",
          "name": "documentHash",
          "type": "string"
        },
        {
          "internalType": "string",
          "name": "name",
          "type": "string"
        },
        {
          "internalType": "string",
          "name": "description",
          "type": "string"
        }
      ],
      "name": "addDocument",
      "outputs": [
        {
          "internalType": "bool",
          "name": "",
          "type": "bool"
        }
      ],
      "payable": false,
      "stateMutability": "nonpayable",
      "type": "function"
    },
    {
      "constant": false,
      "inputs": [
        {
          "internalType": "string",
          "name": "documentHash",
          "type": "string"
        },
        {
          "internalType": "address",
          "name": "signatoryAddress",
          "type": "address"
        },
        {
          "internalType": "string",
          "name": "fullName",
          "type": "string"
        },
        {
          "internalType": "string",
          "name": "description",
          "type": "string"
        }
      ],
      "name": "addSignatory",
      "outputs": [
        {
          "internalType": "bool",
          "name": "",
          "type": "bool"
        }
      ],
      "payable": false,
      "stateMutability": "nonpayable",
      "type": "function"
    },
    {
      "constant": false,
      "inputs": [
        {
          "internalType": "string",
          "name": "documentHash",
          "type": "string"
        }
      ],
      "name": "signDocument",
      "outputs": [
        {
          "internalType": "bool",
          "name": "",
          "type": "bool"
        }
      ],
      "payable": false,
      "stateMutability": "nonpayable",
      "type": "function"
    },
    {
      "constant": true,
      "inputs": [
        {
          "internalType": "string",
          "name": "documentHash",
          "type": "string"
        }
      ],
      "name": "getSignatories",
      "outputs": [
        {
          "internalType": "address[]",
          "name": "",
          "type": "address[]"
        }
      ],
      "payable": false,
      "stateMutability": "view",
      "type": "function"
    },
    {
      "constant": true,
      "inputs": [
        {
          "internalType": "string",
          "name": "documentHash",
          "type": "string"
        },
        {
          "internalType": "address",
          "name": "signatoryAddress",
          "type": "address"
        }
      ],
      "name": "getSignatoryInformation",
      "outputs": [
        {
          "internalType": "string",
          "name": "",
          "type": "string"
        },
        {
          "internalType": "string",
          "name": "",
          "type": "string"
        }
      ],
      "payable": false,
      "stateMutability": "view",
      "type": "function"
    },
    {
      "constant": true,
      "inputs": [
        {
          "internalType": "string",
          "name": "documentHash",
          "type": "string"
        }
      ],
      "name": "getSignatures",
      "outputs": [
        {
          "internalType": "address[]",
          "name": "",
          "type": "address[]"
        }
      ],
      "payable": false,
      "stateMutability": "view",
      "type": "function"
    }
  ],
  "bytecode": "0x608060405234801561001057600080fd5b50612841806100206000396000f3fe608060405234801561001057600080fd5b506004361061007d5760003560e01c8063629781de1161005b578063629781de1461031c57806369c11e5a146104dc578063b3dd697b146105ec578063fe18292c1461082b5761007d565b80632404608f146100825780633040298a1461015057806336a8915b146101e1575b600080fd5b6100f96004803603602081101561009857600080fd5b81019080803590602001906401000000008111156100b557600080fd5b8201836020820111156100c757600080fd5b803590602001918460018302840111640100000000831117156100e957600080fd5b9091929391929390505050610986565b6040518080602001828103825283818151815260200191508051906020019060200280838360005b8381101561013c578082015181840152602081019050610121565b505050509050019250505060405180910390f35b6101c76004803603602081101561016657600080fd5b810190808035906020019064010000000081111561018357600080fd5b82018360208201111561019557600080fd5b803590602001918460018302840111640100000000831117156101b757600080fd5b9091929391929390505050610e4d565b604051808215151515815260200191505060405180910390f35b610302600480360360608110156101f757600080fd5b810190808035906020019064010000000081111561021457600080fd5b82018360208201111561022657600080fd5b8035906020019184600183028401116401000000008311171561024857600080fd5b90919293919293908035906020019064010000000081111561026957600080fd5b82018360208201111561027b57600080fd5b8035906020019184600183028401116401000000008311171561029d57600080fd5b9091929391929390803590602001906401000000008111156102be57600080fd5b8201836020820111156102d057600080fd5b803590602001918460018302840111640100000000831117156102f257600080fd5b9091929391929390505050611223565b604051808215151515815260200191505060405180910390f35b6103f56004803603604081101561033257600080fd5b810190808035906020019064010000000081111561034f57600080fd5b82018360208201111561036157600080fd5b8035906020019184600183028401116401000000008311171561038357600080fd5b91908080601f016020809104026020016040519081016040528093929190818152602001838380828437600081840152601f19601f820116905080830192505050505050509192919290803573ffffffffffffffffffffffffffffffffffffffff169060200190929190505050611509565b604051808060200180602001838103835285818151815260200191508051906020019080838360005b8381101561043957808201518184015260208101905061041e565b50505050905090810190601f1680156104665780820380516001836020036101000a031916815260200191505b50838103825284818151815260200191508051906020019080838360005b8381101561049f578082015181840152602081019050610484565b50505050905090810190601f1680156104cc5780820380516001836020036101000a031916815260200191505b5094505050505060405180910390f35b610595600480360360208110156104f257600080fd5b810190808035906020019064010000000081111561050f57600080fd5b82018360208201111561052157600080fd5b8035906020019184600183028401116401000000008311171561054357600080fd5b91908080601f016020809104026020016040519081016040528093929190818152602001838380828437600081840152601f19601f820116905080830192505050505050509192919290505050611a4a565b6040518080602001828103825283818151815260200191508051906020019060200280838360005b838110156105d85780820151818401526020810190506105bd565b505050509050019250505060405180910390f35b6106a56004803603602081101561060257600080fd5b810190808035906020019064010000000081111561061f57600080fd5b82018360208201111561063157600080fd5b8035906020019184600183028401116401000000008311171561065357600080fd5b91908080601f016020809104026020016040519081016040528093929190818152602001838380828437600081840152601f19601f820116905080830192505050505050509192919290505050611ea3565b604051808060200180602001806020018573ffffffffffffffffffffffffffffffffffffffff1673ffffffffffffffffffffffffffffffffffffffff168152602001848103845288818151815260200191508051906020019080838360005b8381101561071f578082015181840152602081019050610704565b50505050905090810190601f16801561074c5780820380516001836020036101000a031916815260200191505b50848103835287818151815260200191508051906020019080838360005b8381101561078557808201518184015260208101905061076a565b50505050905090810190601f1680156107b25780820380516001836020036101000a031916815260200191505b50848103825286818151815260200191508051906020019080838360005b838110156107eb5780820151818401526020810190506107d0565b50505050905090810190601f1680156108185780820380516001836020036101000a031916815260200191505b5097505050505050505060405180910390f35b61096c6004803603608081101561084157600080fd5b810190808035906020019064010000000081111561085e57600080fd5b82018360208201111561087057600080fd5b8035906020019184600183028401116401000000008311171561089257600080fd5b9091929391929390803573ffffffffffffffffffffffffffffffffffffffff169060200190929190803590602001906401000000008111156108d357600080fd5b8201836020820111156108e557600080fd5b8035906020019184600183028401116401000000008311171561090757600080fd5b90919293919293908035906020019064010000000081111561092857600080fd5b82018360208201111561093a57600080fd5b8035906020019184600183028401116401000000008311171561095c57600080fd5b90919293919293905050506120d1565b604051808215151515815260200191505060405180910390f35b606082828080601f016020809104026020016040519081016040528093929190818152602001838380828437600081840152601f19601f82011690508083019250505050505050600073ffffffffffffffffffffffffffffffffffffffff166000826040518082805190602001908083835b60208310610a1b57805182526020820191506020810190506020830392506109f8565b6001836020036101000a038019825116818451168082178552505050505050905001915050908152602001604051809103902060030160009054906101000a900473ffffffffffffffffffffffffffffffffffffffff1673ffffffffffffffffffffffffffffffffffffffff161415610afc576040517f08c379a00000000000000000000000000000000000000000000000000000000081526004018080602001828103825260188152602001807f446f63756d656e7420646f6573206e6f742065786973742e000000000000000081525060200191505060405180910390fd5b60008085856040518083838082843780830192505050925050509081526020016040518091039020600401805490509050606081604051908082528060200260200182016040528015610b5e5781602001602082028038833980820191505090505b50905060008090505b82811015610e4057610b77612639565b6000888860405180838380828437808301925050509250505090815260200160405180910390206004018281548110610bac57fe5b9060005260206000209060030201604051806060016040529081600082018054600181600116156101000203166002900480601f016020809104026020016040519081016040528092919081815260200182805460018160011615610100020316600290048015610c5e5780601f10610c3357610100808354040283529160200191610c5e565b820191906000526020600020905b815481529060010190602001808311610c4157829003601f168201915b50505050508152602001600182018054600181600116156101000203166002900480601f016020809104026020016040519081016040528092919081815260200182805460018160011615610100020316600290048015610d005780601f10610cd557610100808354040283529160200191610d00565b820191906000526020600020905b815481529060010190602001808311610ce357829003601f168201915b505050505081526020016002820160009054906101000a900473ffffffffffffffffffffffffffffffffffffffff1673ffffffffffffffffffffffffffffffffffffffff1673ffffffffffffffffffffffffffffffffffffffff16815250509050600115156000898960405180838380828437808301925050509250505090815260200160405180910390206006016000836040015173ffffffffffffffffffffffffffffffffffffffff1673ffffffffffffffffffffffffffffffffffffffff16815260200190815260200160002060009054906101000a900460ff1615151415610e32578060400151838381518110610df757fe5b602002602001019073ffffffffffffffffffffffffffffffffffffffff16908173ffffffffffffffffffffffffffffffffffffffff16815250505b508080600101915050610b67565b5080935050505092915050565b600082828080601f016020809104026020016040519081016040528093929190818152602001838380828437600081840152601f19601f82011690508083019250505050505050600073ffffffffffffffffffffffffffffffffffffffff166000826040518082805190602001908083835b60208310610ee25780518252602082019150602081019050602083039250610ebf565b6001836020036101000a038019825116818451168082178552505050505050905001915050908152602001604051809103902060030160009054906101000a900473ffffffffffffffffffffffffffffffffffffffff1673ffffffffffffffffffffffffffffffffffffffff161415610fc3576040517f08c379a00000000000000000000000000000000000000000000000000000000081526004018080602001828103825260188152602001807f446f63756d656e7420646f6573206e6f742065786973742e000000000000000081525060200191505060405180910390fd5b83838080601f016020809104026020016040519081016040528093929190818152602001838380828437600081840152601f19601f8201169050808301925050505050505033600115156000836040518082805190602001908083835b602083106110435780518252602082019150602081019050602083039250611020565b6001836020036101000a038019825116818451168082178552505050505050905001915050908152602001604051809103902060050160008373ffffffffffffffffffffffffffffffffffffffff1673ffffffffffffffffffffffffffffffffffffffff16815260200190815260200160002060009054906101000a900460ff1615151461111c576040517f08c379a00000000000000000000000000000000000000000000000000000000081526004018080602001828103825260348152602001806127d96034913960400191505060405180910390fd5b600160008787604051808383808284378083019250505092505050908152602001604051809103902060060160003373ffffffffffffffffffffffffffffffffffffffff1673ffffffffffffffffffffffffffffffffffffffff16815260200190815260200160002060006101000a81548160ff0219169083151502179055503373ffffffffffffffffffffffffffffffffffffffff167fce53493f4218edd5fe7ec8425b995f3de4ebc408c39de722b9c9823deda57c8d878760405180806020018281038252848482818152602001925080828437600081840152601f19601f820116905080830192505050935050505060405180910390a26001935050505092915050565b600086868080601f016020809104026020016040519081016040528093929190818152602001838380828437600081840152601f19601f82011690508083019250505050505050600073ffffffffffffffffffffffffffffffffffffffff166000826040518082805190602001908083835b602083106112b85780518252602082019150602081019050602083039250611295565b6001836020036101000a038019825116818451168082178552505050505050905001915050908152602001604051809103902060030160009054906101000a900473ffffffffffffffffffffffffffffffffffffffff1673ffffffffffffffffffffffffffffffffffffffff1614611398576040517f08c379a00000000000000000000000000000000000000000000000000000000081526004018080602001828103825260208152602001807f446f63756d656e7420686173206265656e20616c72656164792061646465642e81525060200191505060405180910390fd5b878760008a8a604051808383808284378083019250505092505050908152602001604051809103902060000191906113d1929190612670565b50858560008a8a6040518083838082843780830192505050925050509081526020016040518091039020600101919061140b929190612670565b50838360008a8a60405180838380828437808301925050509250505090815260200160405180910390206002019190611445929190612670565b503360008989604051808383808284378083019250505092505050908152602001604051809103902060030160006101000a81548173ffffffffffffffffffffffffffffffffffffffff021916908373ffffffffffffffffffffffffffffffffffffffff160217905550878760405180838380828437808301925050509250505060405180910390207f10139f827a9aa59dba6be467ace4fb3b388d30087e3cfd9b014ff81ce11ac2c260405160405180910390a260019150509695505050505050565b60608083600073ffffffffffffffffffffffffffffffffffffffff166000826040518082805190602001908083835b6020831061155b5780518252602082019150602081019050602083039250611538565b6001836020036101000a038019825116818451168082178552505050505050905001915050908152602001604051809103902060030160009054906101000a900473ffffffffffffffffffffffffffffffffffffffff1673ffffffffffffffffffffffffffffffffffffffff16141561163c576040517f08c379a00000000000000000000000000000000000000000000000000000000081526004018080602001828103825260188152602001807f446f63756d656e7420646f6573206e6f742065786973742e000000000000000081525060200191505060405180910390fd5b8484600115156000836040518082805190602001908083835b602083106116785780518252602082019150602081019050602083039250611655565b6001836020036101000a038019825116818451168082178552505050505050905001915050908152602001604051809103902060050160008373ffffffffffffffffffffffffffffffffffffffff1673ffffffffffffffffffffffffffffffffffffffff16815260200190815260200160002060009054906101000a900460ff16151514611751576040517f08c379a00000000000000000000000000000000000000000000000000000000081526004018080602001828103825260348152602001806127d96034913960400191505060405180910390fd5b60606000886040518082805190602001908083835b602083106117895780518252602082019150602081019050602083039250611766565b6001836020036101000a0380198251168184511680821785525050505050509050019150509081526020016040518091039020600401805480602002602001604051908101604052809291908181526020016000905b828210156119ab5783829060005260206000209060030201604051806060016040529081600082018054600181600116156101000203166002900480601f01602080910402602001604051908101604052809291908181526020018280546001816001161561010002031660029004801561189b5780601f106118705761010080835404028352916020019161189b565b820191906000526020600020905b81548152906001019060200180831161187e57829003601f168201915b50505050508152602001600182018054600181600116156101000203166002900480601f01602080910402602001604051908101604052809291908181526020018280546001816001161561010002031660029004801561193d5780601f106119125761010080835404028352916020019161193d565b820191906000526020600020905b81548152906001019060200180831161192057829003601f168201915b505050505081526020016002820160009054906101000a900473ffffffffffffffffffffffffffffffffffffffff1673ffffffffffffffffffffffffffffffffffffffff1673ffffffffffffffffffffffffffffffffffffffff1681525050815260200190600101906117df565b50505050905060608060008090505b8351811015611a36576119cb612639565b8482815181106119d757fe5b602002602001015190508a73ffffffffffffffffffffffffffffffffffffffff16816040015173ffffffffffffffffffffffffffffffffffffffff161415611a285780600001519350806020015192505b5080806001019150506119ba565b508181975097505050505050509250929050565b606081600073ffffffffffffffffffffffffffffffffffffffff166000826040518082805190602001908083835b60208310611a9b5780518252602082019150602081019050602083039250611a78565b6001836020036101000a038019825116818451168082178552505050505050905001915050908152602001604051809103902060030160009054906101000a900473ffffffffffffffffffffffffffffffffffffffff1673ffffffffffffffffffffffffffffffffffffffff161415611b7c576040517f08c379a00000000000000000000000000000000000000000000000000000000081526004018080602001828103825260188152602001807f446f63756d656e7420646f6573206e6f742065786973742e000000000000000081525060200191505060405180910390fd5b60606000846040518082805190602001908083835b60208310611bb45780518252602082019150602081019050602083039250611b91565b6001836020036101000a0380198251168184511680821785525050505050509050019150509081526020016040518091039020600401805480602002602001604051908101604052809291908181526020016000905b82821015611dd65783829060005260206000209060030201604051806060016040529081600082018054600181600116156101000203166002900480601f016020809104026020016040519081016040528092919081815260200182805460018160011615610100020316600290048015611cc65780601f10611c9b57610100808354040283529160200191611cc6565b820191906000526020600020905b815481529060010190602001808311611ca957829003601f168201915b50505050508152602001600182018054600181600116156101000203166002900480601f016020809104026020016040519081016040528092919081815260200182805460018160011615610100020316600290048015611d685780601f10611d3d57610100808354040283529160200191611d68565b820191906000526020600020905b815481529060010190602001808311611d4b57829003601f168201915b505050505081526020016002820160009054906101000a900473ffffffffffffffffffffffffffffffffffffffff1673ffffffffffffffffffffffffffffffffffffffff1673ffffffffffffffffffffffffffffffffffffffff168152505081526020019060010190611c0a565b50505050905060608151604051908082528060200260200182016040528015611e0e5781602001602082028038833980820191505090505b50905060008090505b8251811015611e9757611e28612639565b838281518110611e3457fe5b602002602001015190508060400151838381518110611e4f57fe5b602002602001019073ffffffffffffffffffffffffffffffffffffffff16908173ffffffffffffffffffffffffffffffffffffffff1681525050508080600101915050611e17565b50809350505050919050565b600081805160208101820180518482526020830160208501208183528095505050505050600091509050806000018054600181600116156101000203166002900480601f016020809104026020016040519081016040528092919081815260200182805460018160011615610100020316600290048015611f655780601f10611f3a57610100808354040283529160200191611f65565b820191906000526020600020905b815481529060010190602001808311611f4857829003601f168201915b505050505090806001018054600181600116156101000203166002900480601f0160208091040260200160405190810160405280929190818152602001828054600181600116156101000203166002900480156120035780601f10611fd857610100808354040283529160200191612003565b820191906000526020600020905b815481529060010190602001808311611fe657829003601f168201915b505050505090806002018054600181600116156101000203166002900480601f0160208091040260200160405190810160405280929190818152602001828054600181600116156101000203166002900480156120a15780601f10612076576101008083540402835291602001916120a1565b820191906000526020600020905b81548152906001019060200180831161208457829003601f168201915b5050505050908060030160009054906101000a900473ffffffffffffffffffffffffffffffffffffffff16905084565b600087878080601f016020809104026020016040519081016040528093929190818152602001838380828437600081840152601f19601f82011690508083019250505050505050600073ffffffffffffffffffffffffffffffffffffffff166000826040518082805190602001908083835b602083106121665780518252602082019150602081019050602083039250612143565b6001836020036101000a038019825116818451168082178552505050505050905001915050908152602001604051809103902060030160009054906101000a900473ffffffffffffffffffffffffffffffffffffffff1673ffffffffffffffffffffffffffffffffffffffff161415612247576040517f08c379a00000000000000000000000000000000000000000000000000000000081526004018080602001828103825260188152602001807f446f63756d656e7420646f6573206e6f742065786973742e000000000000000081525060200191505060405180910390fd5b88888080601f016020809104026020016040519081016040528093929190818152602001838380828437600081840152601f19601f820116905080830192505050505050503373ffffffffffffffffffffffffffffffffffffffff166000826040518082805190602001908083835b602083106122d957805182526020820191506020810190506020830392506122b6565b6001836020036101000a038019825116818451168082178552505050505050905001915050908152602001604051809103902060030160009054906101000a900473ffffffffffffffffffffffffffffffffffffffff1673ffffffffffffffffffffffffffffffffffffffff161461239c576040517f08c379a00000000000000000000000000000000000000000000000000000000081526004018080602001828103825260438152602001806127966043913960600191505060405180910390fd5b60008a8a6040518083838082843780830192505050925050509081526020016040518091039020600401604051806060016040528089898080601f016020809104026020016040519081016040528093929190818152602001838380828437600081840152601f19601f82011690508083019250505050505050815260200187878080601f016020809104026020016040519081016040528093929190818152602001838380828437600081840152601f19601f8201169050808301925050505050505081526020018a73ffffffffffffffffffffffffffffffffffffffff168152509080600181540180825580915050906001820390600052602060002090600302016000909192909190915060008201518160000190805190602001906124c69291906126f0565b5060208201518160010190805190602001906124e39291906126f0565b5060408201518160020160006101000a81548173ffffffffffffffffffffffffffffffffffffffff021916908373ffffffffffffffffffffffffffffffffffffffff160217905550505050600160008b8b604051808383808284378083019250505092505050908152602001604051809103902060050160008a73ffffffffffffffffffffffffffffffffffffffff1673ffffffffffffffffffffffffffffffffffffffff16815260200190815260200160002060006101000a81548160ff0219169083151502179055508773ffffffffffffffffffffffffffffffffffffffff167faff564d9b96a28fa331f083f6bfd9085bf6526a7c5aa0672f8570950f12b500e8b8b60405180806020018281038252848482818152602001925080828437600081840152601f19601f820116905080830192505050935050505060405180910390a2600192505050979650505050505050565b60405180606001604052806060815260200160608152602001600073ffffffffffffffffffffffffffffffffffffffff1681525090565b828054600181600116156101000203166002900490600052602060002090601f016020900481019282601f106126b157803560ff19168380011785556126df565b828001600101855582156126df579182015b828111156126de5782358255916020019190600101906126c3565b5b5090506126ec9190612770565b5090565b828054600181600116156101000203166002900490600052602060002090601f016020900481019282601f1061273157805160ff191683800117855561275f565b8280016001018555821561275f579182015b8281111561275e578251825591602001919060010190612743565b5b50905061276c9190612770565b5090565b61279291905b8082111561278e576000816000905550600101612776565b5090565b9056fe4f6e6c79206f776e657220697320616c6c6f77656420746f20706572666f726d2074686973206b696e64206f6620616374696f6e206f76657220646f63756d656e742e5369676e61746f7279206973206e6f7720616c6c6f77656420746f207369676e2073706563696669656420646f63756d656e742ea265627a7a7231582095dff20d577c88fbb879298ef9e2ddc99920b45f8812148904c4e1807b2b0ac864736f6c63430005100032",
  "source": "pragma solidity >=0.5.16 <0.9.0;\n\n/**\n* Document Signer Smart Contract\n*/\ncontract DocumentSigner {\n\n    struct Document {\n        string documentHash;\n        string name;\n        string description;\n        address owner;\n        Signatory [] signatories;\n        mapping (address => bool) addedSignatories;\n        mapping (address => bool) signatures;\n    }\n\n    struct Signatory {\n        string fullName;\n        string description;\n        address signatoryAddress;\n    }\n\n    /* Documents mapped by hash */\n    mapping (string => Document) public documents;\n\n    /**\n    * Events\n    */\n    event DocumentAdded(string indexed documentHash);\n    event SignatoryAdded(string documentHash, address indexed signatoryAddress);\n    event DocumentSigned(string documentHash, address indexed signatoryAddress);\n\n    /**\n    * Require that document does not exist.\n    */\n    modifier documentDoesNotExist(string memory documentHash) {\n        require(documents[documentHash].owner == address(0), \"Document has been already added.\");\n        _;\n    }\n\n    /**\n    * Require that document exist.\n    */\n    modifier documentExist(string memory documentHash) {\n        require(documents[documentHash].owner != address(0), \"Document does not exist.\");\n        _;\n    }\n\n    /**\n    * Require that document exist.\n    */\n    modifier signatoryExist(string memory documentHash, address signatoryAddress) {\n        require(\n            documents[documentHash].addedSignatories[signatoryAddress] == true,\n            \"Signatory is now allowed to sign specified document.\"\n        );\n        _;\n    }\n\n    /**\n    * Require that call comes from document owner.\n    */\n    modifier onlyDocumentOwner(string memory documentHash) {\n        require(\n            documents[documentHash].owner == msg.sender,\n            \"Only owner is allowed to perform this kind of action over document.\");\n        _;\n    }\n\n    /**\n    * Add new document to the smart contract storage.\n    *\n    * returns bool\n    */\n    function addDocument(string calldata documentHash, string calldata name, string calldata description) external\n    documentDoesNotExist(documentHash) returns (bool) {\n        documents[documentHash].documentHash = documentHash;\n        documents[documentHash].name = name;\n        documents[documentHash].description = description;\n        documents[documentHash].owner = msg.sender;\n\n        emit DocumentAdded(documentHash);\n\n        return true;\n    }\n\n    /**\n    * Add new user (signatory) to the smart contract and allow them to sign a specified document.\n    * Note: Only owner of a document can perform this action.\n    *\n    * returns bool\n    */\n    function addSignatory(string calldata documentHash, address signatoryAddress, string calldata fullName, string calldata description)\n    external documentExist(documentHash) onlyDocumentOwner(documentHash) returns (bool) {\n        documents[documentHash].signatories.push(\n            Signatory({\n                fullName: fullName,\n                description: description,\n                signatoryAddress: signatoryAddress\n            })\n        );\n        documents[documentHash].addedSignatories[signatoryAddress] = true;\n        emit SignatoryAdded(documentHash, signatoryAddress);\n\n        return true;\n    }\n\n    /**\n    * Add signature to the document specified by a document hash.\n    */\n    function signDocument(string calldata documentHash)\n    external documentExist(documentHash) signatoryExist(documentHash, msg.sender) returns (bool) {\n        documents[documentHash].signatures[msg.sender] = true;\n        emit DocumentSigned(documentHash, msg.sender);\n\n        return true;\n    }\n\n    /**\n    * Get signatories added to the document.\n    *\n    * returns address []\n    */\n    function getSignatories(string memory documentHash) public view documentExist(documentHash)\n    returns (address [] memory) {\n        Signatory [] memory signatories = documents[documentHash].signatories;\n        address [] memory addresses = new address [] (signatories.length);\n\n        for (uint i = 0; i < signatories.length; i++) {\n            Signatory memory signatory = signatories[i];\n            addresses[i] = signatory.signatoryAddress;\n        }\n\n        return (addresses);\n    }\n\n    /**\n    * Get signatory information.\n    *\n    * returns (string [] fullNames, string [] description)\n    */\n    function getSignatoryInformation(string memory documentHash, address signatoryAddress)\n    public view documentExist(documentHash) signatoryExist(documentHash, signatoryAddress)\n    returns (string memory, string memory) {\n        Signatory [] memory signatories = documents[documentHash].signatories;\n\n        string memory signatoryFullName;\n        string memory signatoryDescription;\n\n        for (uint i = 0; i < signatories.length; i++) {\n            Signatory memory signatory = signatories[i];\n            if (signatory.signatoryAddress == signatoryAddress) {\n                signatoryFullName = signatory.fullName;\n                signatoryDescription = signatory.description;\n            }\n        }\n\n        return (signatoryFullName, signatoryDescription);\n    }\n\n    /**\n    * Get document signatures in form of addresses of the signatories who signed the specified document.\n    *\n    * returns address []\n    */\n    function getSignatures(string calldata documentHash) external view documentExist(documentHash) returns (address [] memory) {\n        uint256 totalSignatories = documents[documentHash].signatories.length;\n        address [] memory signatures = new address[](totalSignatories);\n        for (uint i = 0; i < totalSignatories; i++) {\n            Signatory memory signatory = documents[documentHash].signatories[i];\n            if (documents[documentHash].signatures[signatory.signatoryAddress] == true) {\n                signatures[i] = signatory.signatoryAddress;\n            }\n        }\n\n        return signatures;\n    }\n}\n",
  "sourcePath": "/home/david/blockchain/blockchain-developer-bootcamp-final-project/smart-contracts/document-signer/contracts/DocumentSigner.sol",
  "compiler": {
    "name": "solc",
    "version": "0.5.16+commit.9c3226ce.Emscripten.clang"
  },
  "schemaVersion": "3.4.3",
  "updatedAt": "2021-11-10T00:20:38.148Z",
  "devdoc": {
    "methods": {}
  },
  "userdoc": {
    "methods": {
      "addDocument(string,string,string)": {
        "notice": "Add new document to the smart contract storage.    * returns bool"
      },
      "addSignatory(string,address,string,string)": {
        "notice": "Add new user (signatory) to the smart contract and allow them to sign a specified document. Note: Only owner of a document can perform this action.    * returns bool"
      },
      "getSignatories(string)": {
        "notice": "Get signatories added to the document.    * returns address []"
      },
      "getSignatoryInformation(string,address)": {
        "notice": "Get signatory information.    * returns (string [] fullNames, string [] description)"
      },
      "getSignatures(string)": {
        "notice": "Get document signatures in form of addresses of the signatories who signed the specified document.    * returns address []"
      },
      "signDocument(string)": {
        "notice": "Add signature to the document specified by a document hash."
      }
    },
    "notice": "Document Signer Smart Contract"
  }
}