{
  "contractName": "DocumentSigner",
  "abi": [
    {
      "anonymous": false,
      "inputs": [
        {
          "indexed": true,
          "internalType": "string",
          "name": "documentHash",
          "type": "string"
        }
      ],
      "name": "DocumentAdded",
      "type": "event"
    },
    {
      "anonymous": false,
      "inputs": [
        {
          "indexed": false,
          "internalType": "string",
          "name": "documentHash",
          "type": "string"
        },
        {
          "indexed": true,
          "internalType": "address",
          "name": "signatoryAddress",
          "type": "address"
        }
      ],
      "name": "DocumentSigned",
      "type": "event"
    },
    {
      "anonymous": false,
      "inputs": [
        {
          "indexed": false,
          "internalType": "string",
          "name": "documentHash",
          "type": "string"
        },
        {
          "indexed": true,
          "internalType": "address",
          "name": "signatoryAddress",
          "type": "address"
        }
      ],
      "name": "SignatoryAdded",
      "type": "event"
    },
    {
      "constant": true,
      "inputs": [
        {
          "internalType": "string",
          "name": "",
          "type": "string"
        }
      ],
      "name": "documents",
      "outputs": [
        {
          "internalType": "string",
          "name": "documentHash",
          "type": "string"
        },
        {
          "internalType": "string",
          "name": "name",
          "type": "string"
        },
        {
          "internalType": "string",
          "name": "description",
          "type": "string"
        },
        {
          "internalType": "address",
          "name": "owner",
          "type": "address"
        }
      ],
      "payable": false,
      "stateMutability": "view",
      "type": "function"
    },
    {
      "constant": false,
      "inputs": [
        {
          "internalType": "string",
          "name": "documentHash",
          "type": "string"
        },
        {
          "internalType": "string",
          "name": "name",
          "type": "string"
        },
        {
          "internalType": "string",
          "name": "description",
          "type": "string"
        }
      ],
      "name": "addDocument",
      "outputs": [
        {
          "internalType": "bool",
          "name": "",
          "type": "bool"
        }
      ],
      "payable": false,
      "stateMutability": "nonpayable",
      "type": "function"
    },
    {
      "constant": false,
      "inputs": [
        {
          "internalType": "string",
          "name": "documentHash",
          "type": "string"
        },
        {
          "internalType": "address",
          "name": "signatoryAddress",
          "type": "address"
        },
        {
          "internalType": "string",
          "name": "firstName",
          "type": "string"
        },
        {
          "internalType": "string",
          "name": "lastName",
          "type": "string"
        }
      ],
      "name": "addSignatory",
      "outputs": [
        {
          "internalType": "bool",
          "name": "",
          "type": "bool"
        }
      ],
      "payable": false,
      "stateMutability": "nonpayable",
      "type": "function"
    },
    {
      "constant": false,
      "inputs": [
        {
          "internalType": "string",
          "name": "documentHash",
          "type": "string"
        },
        {
          "internalType": "string",
          "name": "note",
          "type": "string"
        }
      ],
      "name": "signDocument",
      "outputs": [
        {
          "internalType": "bool",
          "name": "",
          "type": "bool"
        }
      ],
      "payable": false,
      "stateMutability": "nonpayable",
      "type": "function"
    }
  ],
  "bytecode": "0x608060405234801561001057600080fd5b50611604806100206000396000f3fe608060405234801561001057600080fd5b506004361061004c5760003560e01c806336a8915b146100515780638d58bf021461018c578063b3dd697b14610272578063fe18292c146104b1575b600080fd5b6101726004803603606081101561006757600080fd5b810190808035906020019064010000000081111561008457600080fd5b82018360208201111561009657600080fd5b803590602001918460018302840111640100000000831117156100b857600080fd5b9091929391929390803590602001906401000000008111156100d957600080fd5b8201836020820111156100eb57600080fd5b8035906020019184600183028401116401000000008311171561010d57600080fd5b90919293919293908035906020019064010000000081111561012e57600080fd5b82018360208201111561014057600080fd5b8035906020019184600183028401116401000000008311171561016257600080fd5b909192939192939050505061060c565b604051808215151515815260200191505060405180910390f35b610258600480360360408110156101a257600080fd5b81019080803590602001906401000000008111156101bf57600080fd5b8201836020820111156101d157600080fd5b803590602001918460018302840111640100000000831117156101f357600080fd5b90919293919293908035906020019064010000000081111561021457600080fd5b82018360208201111561022657600080fd5b8035906020019184600183028401116401000000008311171561024857600080fd5b90919293919293905050506108f2565b604051808215151515815260200191505060405180910390f35b61032b6004803603602081101561028857600080fd5b81019080803590602001906401000000008111156102a557600080fd5b8201836020820111156102b757600080fd5b803590602001918460018302840111640100000000831117156102d957600080fd5b91908080601f016020809104026020016040519081016040528093929190818152602001838380828437600081840152601f19601f820116905080830192505050505050509192919290505050610d4b565b604051808060200180602001806020018573ffffffffffffffffffffffffffffffffffffffff1673ffffffffffffffffffffffffffffffffffffffff168152602001848103845288818151815260200191508051906020019080838360005b838110156103a557808201518184015260208101905061038a565b50505050905090810190601f1680156103d25780820380516001836020036101000a031916815260200191505b50848103835287818151815260200191508051906020019080838360005b8381101561040b5780820151818401526020810190506103f0565b50505050905090810190601f1680156104385780820380516001836020036101000a031916815260200191505b50848103825286818151815260200191508051906020019080838360005b83811015610471578082015181840152602081019050610456565b50505050905090810190601f16801561049e5780820380516001836020036101000a031916815260200191505b5097505050505050505060405180910390f35b6105f2600480360360808110156104c757600080fd5b81019080803590602001906401000000008111156104e457600080fd5b8201836020820111156104f657600080fd5b8035906020019184600183028401116401000000008311171561051857600080fd5b9091929391929390803573ffffffffffffffffffffffffffffffffffffffff1690602001909291908035906020019064010000000081111561055957600080fd5b82018360208201111561056b57600080fd5b8035906020019184600183028401116401000000008311171561058d57600080fd5b9091929391929390803590602001906401000000008111156105ae57600080fd5b8201836020820111156105c057600080fd5b803590602001918460018302840111640100000000831117156105e257600080fd5b9091929391929390505050610f79565b604051808215151515815260200191505060405180910390f35b600086868080601f016020809104026020016040519081016040528093929190818152602001838380828437600081840152601f19601f82011690508083019250505050505050600073ffffffffffffffffffffffffffffffffffffffff166000826040518082805190602001908083835b602083106106a1578051825260208201915060208101905060208303925061067e565b6001836020036101000a038019825116818451168082178552505050505050905001915050908152602001604051809103902060030160009054906101000a900473ffffffffffffffffffffffffffffffffffffffff1673ffffffffffffffffffffffffffffffffffffffff1614610781576040517f08c379a00000000000000000000000000000000000000000000000000000000081526004018080602001828103825260208152602001807f446f63756d656e7420686173206265656e20616c72656164792061646465642e81525060200191505060405180910390fd5b878760008a8a604051808383808284378083019250505092505050908152602001604051809103902060000191906107ba929190611467565b50858560008a8a604051808383808284378083019250505092505050908152602001604051809103902060010191906107f4929190611467565b50838360008a8a6040518083838082843780830192505050925050509081526020016040518091039020600201919061082e929190611467565b503360008989604051808383808284378083019250505092505050908152602001604051809103902060030160006101000a81548173ffffffffffffffffffffffffffffffffffffffff021916908373ffffffffffffffffffffffffffffffffffffffff160217905550878760405180838380828437808301925050509250505060405180910390207f10139f827a9aa59dba6be467ace4fb3b388d30087e3cfd9b014ff81ce11ac2c260405160405180910390a260019150509695505050505050565b600084848080601f016020809104026020016040519081016040528093929190818152602001838380828437600081840152601f19601f82011690508083019250505050505050600073ffffffffffffffffffffffffffffffffffffffff166000826040518082805190602001908083835b602083106109875780518252602082019150602081019050602083039250610964565b6001836020036101000a038019825116818451168082178552505050505050905001915050908152602001604051809103902060030160009054906101000a900473ffffffffffffffffffffffffffffffffffffffff1673ffffffffffffffffffffffffffffffffffffffff161415610a68576040517f08c379a00000000000000000000000000000000000000000000000000000000081526004018080602001828103825260188152602001807f446f63756d656e7420646f6573206e6f742065786973742e000000000000000081525060200191505060405180910390fd5b85858080601f016020809104026020016040519081016040528093929190818152602001838380828437600081840152601f19601f8201169050808301925050505050505033600115156000836040518082805190602001908083835b60208310610ae85780518252602082019150602081019050602083039250610ac5565b6001836020036101000a038019825116818451168082178552505050505050905001915050908152602001604051809103902060050160008373ffffffffffffffffffffffffffffffffffffffff1673ffffffffffffffffffffffffffffffffffffffff16815260200190815260200160002060009054906101000a900460ff16151514610b7557600080fd5b60405180606001604052803373ffffffffffffffffffffffffffffffffffffffff16815260200187878080601f016020809104026020016040519081016040528093929190818152602001838380828437600081840152601f19601f8201169050808301925050505050505081526020014281525060008989604051808383808284378083019250505092505050908152602001604051809103902060060160003373ffffffffffffffffffffffffffffffffffffffff1673ffffffffffffffffffffffffffffffffffffffff16815260200190815260200160002060008201518160000160006101000a81548173ffffffffffffffffffffffffffffffffffffffff021916908373ffffffffffffffffffffffffffffffffffffffff1602179055506020820151816001019080519060200190610cb49291906114e7565b50604082015181600201559050503373ffffffffffffffffffffffffffffffffffffffff167fce53493f4218edd5fe7ec8425b995f3de4ebc408c39de722b9c9823deda57c8d898960405180806020018281038252848482818152602001925080828437600081840152601f19601f820116905080830192505050935050505060405180910390a260019350505050949350505050565b600081805160208101820180518482526020830160208501208183528095505050505050600091509050806000018054600181600116156101000203166002900480601f016020809104026020016040519081016040528092919081815260200182805460018160011615610100020316600290048015610e0d5780601f10610de257610100808354040283529160200191610e0d565b820191906000526020600020905b815481529060010190602001808311610df057829003601f168201915b505050505090806001018054600181600116156101000203166002900480601f016020809104026020016040519081016040528092919081815260200182805460018160011615610100020316600290048015610eab5780601f10610e8057610100808354040283529160200191610eab565b820191906000526020600020905b815481529060010190602001808311610e8e57829003601f168201915b505050505090806002018054600181600116156101000203166002900480601f016020809104026020016040519081016040528092919081815260200182805460018160011615610100020316600290048015610f495780601f10610f1e57610100808354040283529160200191610f49565b820191906000526020600020905b815481529060010190602001808311610f2c57829003601f168201915b5050505050908060030160009054906101000a900473ffffffffffffffffffffffffffffffffffffffff16905084565b600087878080601f016020809104026020016040519081016040528093929190818152602001838380828437600081840152601f19601f82011690508083019250505050505050600073ffffffffffffffffffffffffffffffffffffffff166000826040518082805190602001908083835b6020831061100e5780518252602082019150602081019050602083039250610feb565b6001836020036101000a038019825116818451168082178552505050505050905001915050908152602001604051809103902060030160009054906101000a900473ffffffffffffffffffffffffffffffffffffffff1673ffffffffffffffffffffffffffffffffffffffff1614156110ef576040517f08c379a00000000000000000000000000000000000000000000000000000000081526004018080602001828103825260188152602001807f446f63756d656e7420646f6573206e6f742065786973742e000000000000000081525060200191505060405180910390fd5b88888080601f016020809104026020016040519081016040528093929190818152602001838380828437600081840152601f19601f820116905080830192505050505050503373ffffffffffffffffffffffffffffffffffffffff166000826040518082805190602001908083835b60208310611181578051825260208201915060208101905060208303925061115e565b6001836020036101000a038019825116818451168082178552505050505050905001915050908152602001604051809103902060030160009054906101000a900473ffffffffffffffffffffffffffffffffffffffff1673ffffffffffffffffffffffffffffffffffffffff1614611244576040517f08c379a000000000000000000000000000000000000000000000000000000000815260040180806020018281038252604381526020018061158d6043913960600191505060405180910390fd5b60008a8a6040518083838082843780830192505050925050509081526020016040518091039020600401604051806060016040528089898080601f016020809104026020016040519081016040528093929190818152602001838380828437600081840152601f19601f82011690508083019250505050505050815260200187878080601f016020809104026020016040519081016040528093929190818152602001838380828437600081840152601f19601f8201169050808301925050505050505081526020018a73ffffffffffffffffffffffffffffffffffffffff1681525090806001815401808255809150509060018203906000526020600020906003020160009091929091909150600082015181600001908051906020019061136e9291906114e7565b50602082015181600101908051906020019061138b9291906114e7565b5060408201518160020160006101000a81548173ffffffffffffffffffffffffffffffffffffffff021916908373ffffffffffffffffffffffffffffffffffffffff160217905550505050600160008b8b604051808383808284378083019250505092505050908152602001604051809103902060050160008a73ffffffffffffffffffffffffffffffffffffffff1673ffffffffffffffffffffffffffffffffffffffff16815260200190815260200160002060006101000a81548160ff021916908315150217905550600192505050979650505050505050565b828054600181600116156101000203166002900490600052602060002090601f016020900481019282601f106114a857803560ff19168380011785556114d6565b828001600101855582156114d6579182015b828111156114d55782358255916020019190600101906114ba565b5b5090506114e39190611567565b5090565b828054600181600116156101000203166002900490600052602060002090601f016020900481019282601f1061152857805160ff1916838001178555611556565b82800160010185558215611556579182015b8281111561155557825182559160200191906001019061153a565b5b5090506115639190611567565b5090565b61158991905b8082111561158557600081600090555060010161156d565b5090565b9056fe4f6e6c79206f776e657220697320616c6c6f77656420746f20706572666f726d2074686973206b696e64206f6620616374696f6e206f76657220646f63756d656e742ea265627a7a72315820752097d0a313212b3514ca820b778be26b9e67d08e654f20ad8f74b77228231d64736f6c63430005100032",
  "source": "pragma solidity >=0.5.16 <0.9.0;\n\n/**\n* Document Signer Smart Contract\n*/\ncontract DocumentSigner {\n\n    struct Document {\n        string documentHash;\n        string name;\n        string description;\n        address owner;\n        Signatory [] signatories;\n        mapping (address => bool) addedSignatories;\n        mapping (address => Signature) signatures;\n    }\n\n    struct Signatory {\n        string firstName;\n        string lastName;\n        address signatoryAddress;\n    }\n\n    struct Signature {\n        address signatoryAddress;\n        string note;\n        uint256 signedAt;\n    }\n\n    /* Documents mapped by hash */\n    mapping (string => Document) public documents;\n\n    /**\n    * Events\n    */\n    event DocumentAdded(string indexed documentHash);\n    event SignatoryAdded(string documentHash, address indexed signatoryAddress);\n    event DocumentSigned(string documentHash, address indexed signatoryAddress);\n\n    /**\n    * Require that document does not exist.\n    */\n    modifier documentDoesNotExist(string memory documentHash) {\n        require(documents[documentHash].owner == address(0), \"Document has been already added.\");\n        _;\n    }\n\n    /**\n    * Require that document exist.\n    */\n    modifier documentExist(string memory documentHash) {\n        require(documents[documentHash].owner != address(0), \"Document does not exist.\");\n        _;\n    }\n\n    /**\n    * Require that document exist.\n    */\n    modifier signatoryExist(string memory documentHash, address signatoryAddress) {\n        require(documents[documentHash].addedSignatories[signatoryAddress] == true);\n        _;\n    }\n\n    /**\n    * Require that call comes from document owner.\n    */\n    modifier onlyDocumentOwner(string memory documentHash) {\n        require(\n            documents[documentHash].owner == msg.sender,\n            \"Only owner is allowed to perform this kind of action over document.\");\n        _;\n    }\n\n    /**\n    * Add new document to the smart contract storage.\n    *\n    * returns bool\n    */\n    function addDocument(string calldata documentHash, string calldata name, string calldata description) external\n    documentDoesNotExist(documentHash) returns (bool) {\n        documents[documentHash].documentHash = documentHash;\n        documents[documentHash].name = name;\n        documents[documentHash].description = description;\n        documents[documentHash].owner = msg.sender;\n\n        emit DocumentAdded(documentHash);\n\n        return true;\n    }\n\n    /**\n    * Add new user (signatory) to the smart contract and allow them to sign a specified document.\n    * Note: Only owner of a document can perform this action.\n    *\n    * returns bool\n    */\n    function addSignatory(string calldata documentHash, address signatoryAddress, string calldata firstName, string calldata lastName)\n    external documentExist(documentHash) onlyDocumentOwner(documentHash) returns (bool) {\n        documents[documentHash].signatories.push(\n            Signatory({\n                firstName: firstName,\n                lastName: lastName,\n                signatoryAddress: signatoryAddress\n            })\n        );\n        documents[documentHash].addedSignatories[signatoryAddress] = true;\n\n        return true;\n    }\n\n    /**\n    * Add signature to the document specified by a document hash.\n    */\n    function signDocument(string calldata documentHash, string calldata note)\n    external documentExist(documentHash) signatoryExist(documentHash, msg.sender) returns (bool) {\n        documents[documentHash].signatures[msg.sender] = Signature({\n            signatoryAddress: msg.sender,\n            note: note,\n            signedAt: block.timestamp\n        });\n\n        emit DocumentSigned(documentHash, msg.sender);\n\n        return true;\n    }\n\n    /**As you’ll see, the compiler complains However, if you’ve been coding in Solidity for a while, you might notice that the following works perfectly well:about both functions, getBryn and getPerson:\n\n    * Get signatories added to the document.\n    *\n    * returns Signatory[]\n    */\n//    function getSignatories(string calldata documentHash) external view documentExist(documentHash) returns (Signatory [] memory) {\n//        return documents[documentHash].signatories;\n//    }\n\n    /**\n    * Get document signatures.\n    *\n    * returns Signature[]\n    */\n//    function getSignatures(string calldata documentHash) external view documentExist(documentHash) returns (Signature [] memory) {\n//        uint256 totalSignatories = documents[documentHash].signatories.length;\n//        Signature [] memory signatures = new Signature[](totalSignatories);\n//        for (uint i = 0; i < totalSignatories; i++) {\n//            signatures[i] = documents[documentHash].signatures[\n//                documents[documentHash].signatories[i].signatoryAddress\n//            ];\n//        }\n//\n//        return signatures;\n//    }\n}\n",
  "sourcePath": "/home/david/blockchain/blockchain-developer-bootcamp-final-project/smart-contracts/document-signer/contracts/DocumentSigner.sol",
  "compiler": {
    "name": "solc",
    "version": "0.5.16+commit.9c3226ce.Emscripten.clang"
  },
  "schemaVersion": "3.4.3",
  "updatedAt": "2021-11-07T23:03:55.025Z",
  "networkType": "ethereum",
  "devdoc": {
    "methods": {}
  },
  "userdoc": {
    "methods": {
      "addDocument(string,string,string)": {
        "notice": "Add new document to the smart contract storage.    * returns bool"
      },
      "addSignatory(string,address,string,string)": {
        "notice": "Add new user (signatory) to the smart contract and allow them to sign a specified document. Note: Only owner of a document can perform this action.    * returns bool"
      },
      "signDocument(string,string)": {
        "notice": "Add signature to the document specified by a document hash."
      }
    },
    "notice": "Document Signer Smart Contract"
  }
}