{
  "contractName": "DocumentSigner",
  "abi": [
    {
      "anonymous": false,
      "inputs": [
        {
          "indexed": true,
          "internalType": "string",
          "name": "documentHash",
          "type": "string"
        }
      ],
      "name": "DocumentAdded",
      "type": "event"
    },
    {
      "anonymous": false,
      "inputs": [
        {
          "indexed": false,
          "internalType": "string",
          "name": "documentHash",
          "type": "string"
        },
        {
          "indexed": true,
          "internalType": "address",
          "name": "signatoryAddress",
          "type": "address"
        }
      ],
      "name": "DocumentSigned",
      "type": "event"
    },
    {
      "anonymous": false,
      "inputs": [
        {
          "indexed": false,
          "internalType": "string",
          "name": "documentHash",
          "type": "string"
        },
        {
          "indexed": true,
          "internalType": "address",
          "name": "signatoryAddress",
          "type": "address"
        }
      ],
      "name": "SignatoryAdded",
      "type": "event"
    },
    {
      "constant": true,
      "inputs": [
        {
          "internalType": "string",
          "name": "",
          "type": "string"
        }
      ],
      "name": "documents",
      "outputs": [
        {
          "internalType": "string",
          "name": "documentHash",
          "type": "string"
        },
        {
          "internalType": "string",
          "name": "name",
          "type": "string"
        },
        {
          "internalType": "string",
          "name": "description",
          "type": "string"
        },
        {
          "internalType": "address",
          "name": "owner",
          "type": "address"
        },
        {
          "internalType": "string",
          "name": "algorithm",
          "type": "string"
        },
        {
          "internalType": "uint256",
          "name": "createdAt",
          "type": "uint256"
        }
      ],
      "payable": false,
      "stateMutability": "view",
      "type": "function"
    },
    {
      "constant": false,
      "inputs": [
        {
          "internalType": "string",
          "name": "documentHash",
          "type": "string"
        },
        {
          "internalType": "string",
          "name": "name",
          "type": "string"
        },
        {
          "internalType": "string",
          "name": "description",
          "type": "string"
        },
        {
          "internalType": "string",
          "name": "algorithm",
          "type": "string"
        }
      ],
      "name": "addDocument",
      "outputs": [
        {
          "internalType": "bool",
          "name": "",
          "type": "bool"
        }
      ],
      "payable": false,
      "stateMutability": "nonpayable",
      "type": "function"
    },
    {
      "constant": false,
      "inputs": [
        {
          "internalType": "string",
          "name": "documentHash",
          "type": "string"
        },
        {
          "internalType": "address",
          "name": "signatoryAddress",
          "type": "address"
        },
        {
          "internalType": "string",
          "name": "fullName",
          "type": "string"
        },
        {
          "internalType": "string",
          "name": "description",
          "type": "string"
        }
      ],
      "name": "addSignatory",
      "outputs": [
        {
          "internalType": "bool",
          "name": "",
          "type": "bool"
        }
      ],
      "payable": true,
      "stateMutability": "payable",
      "type": "function"
    },
    {
      "constant": false,
      "inputs": [
        {
          "internalType": "string",
          "name": "documentHash",
          "type": "string"
        }
      ],
      "name": "signDocument",
      "outputs": [
        {
          "internalType": "bool",
          "name": "",
          "type": "bool"
        }
      ],
      "payable": false,
      "stateMutability": "nonpayable",
      "type": "function"
    },
    {
      "constant": true,
      "inputs": [
        {
          "internalType": "string",
          "name": "documentHash",
          "type": "string"
        }
      ],
      "name": "getSignatories",
      "outputs": [
        {
          "internalType": "address[]",
          "name": "",
          "type": "address[]"
        }
      ],
      "payable": false,
      "stateMutability": "view",
      "type": "function"
    },
    {
      "constant": true,
      "inputs": [
        {
          "internalType": "string",
          "name": "documentHash",
          "type": "string"
        },
        {
          "internalType": "address",
          "name": "signatoryAddress",
          "type": "address"
        }
      ],
      "name": "getSignatoryInformation",
      "outputs": [
        {
          "internalType": "string",
          "name": "",
          "type": "string"
        },
        {
          "internalType": "string",
          "name": "",
          "type": "string"
        },
        {
          "internalType": "uint256",
          "name": "",
          "type": "uint256"
        },
        {
          "internalType": "uint256",
          "name": "",
          "type": "uint256"
        },
        {
          "internalType": "bool",
          "name": "",
          "type": "bool"
        }
      ],
      "payable": false,
      "stateMutability": "view",
      "type": "function"
    },
    {
      "constant": true,
      "inputs": [
        {
          "internalType": "string",
          "name": "documentHash",
          "type": "string"
        }
      ],
      "name": "getSignatures",
      "outputs": [
        {
          "internalType": "address[]",
          "name": "",
          "type": "address[]"
        }
      ],
      "payable": false,
      "stateMutability": "view",
      "type": "function"
    }
  ],
  "bytecode": "0x608060405234801561001057600080fd5b506132fb806100206000396000f3fe6080604052600436106100705760003560e01c8063629781de1161004e578063629781de1461038b57806369c11e5a14610571578063b3dd697b1461068e578063fe18292c1461094d57610070565b80630e72ca7a146100755780632404608f146102125780633040298a146102ed575b600080fd5b34801561008157600080fd5b506101f86004803603608081101561009857600080fd5b81019080803590602001906401000000008111156100b557600080fd5b8201836020820111156100c757600080fd5b803590602001918460018302840111640100000000831117156100e957600080fd5b90919293919293908035906020019064010000000081111561010a57600080fd5b82018360208201111561011c57600080fd5b8035906020019184600183028401116401000000008311171561013e57600080fd5b90919293919293908035906020019064010000000081111561015f57600080fd5b82018360208201111561017157600080fd5b8035906020019184600183028401116401000000008311171561019357600080fd5b9091929391929390803590602001906401000000008111156101b457600080fd5b8201836020820111156101c657600080fd5b803590602001918460018302840111640100000000831117156101e857600080fd5b9091929391929390505050610aa8565b604051808215151515815260200191505060405180910390f35b34801561021e57600080fd5b506102966004803603602081101561023557600080fd5b810190808035906020019064010000000081111561025257600080fd5b82018360208201111561026457600080fd5b8035906020019184600183028401116401000000008311171561028657600080fd5b9091929391929390505050610df9565b6040518080602001828103825283818151815260200191508051906020019060200280838360005b838110156102d95780820151818401526020810190506102be565b505050509050019250505060405180910390f35b3480156102f957600080fd5b506103716004803603602081101561031057600080fd5b810190808035906020019064010000000081111561032d57600080fd5b82018360208201111561033f57600080fd5b8035906020019184600183028401116401000000008311171561036157600080fd5b90919293919293905050506112ef565b604051808215151515815260200191505060405180910390f35b34801561039757600080fd5b50610471600480360360408110156103ae57600080fd5b81019080803590602001906401000000008111156103cb57600080fd5b8201836020820111156103dd57600080fd5b803590602001918460018302840111640100000000831117156103ff57600080fd5b91908080601f016020809104026020016040519081016040528093929190818152602001838380828437600081840152601f19601f820116905080830192505050505050509192919290803573ffffffffffffffffffffffffffffffffffffffff169060200190929190505050611c4b565b60405180806020018060200186815260200185815260200184151515158152602001838103835288818151815260200191508051906020019080838360005b838110156104cb5780820151818401526020810190506104b0565b50505050905090810190601f1680156104f85780820380516001836020036101000a031916815260200191505b50838103825287818151815260200191508051906020019080838360005b83811015610531578082015181840152602081019050610516565b50505050905090810190601f16801561055e5780820380516001836020036101000a031916815260200191505b5097505050505050505060405180910390f35b34801561057d57600080fd5b506106376004803603602081101561059457600080fd5b81019080803590602001906401000000008111156105b157600080fd5b8201836020820111156105c357600080fd5b803590602001918460018302840111640100000000831117156105e557600080fd5b91908080601f016020809104026020016040519081016040528093929190818152602001838380828437600081840152601f19601f8201169050808301925050505050505091929192905050506121e4565b6040518080602001828103825283818151815260200191508051906020019060200280838360005b8381101561067a57808201518184015260208101905061065f565b505050509050019250505060405180910390f35b34801561069a57600080fd5b50610754600480360360208110156106b157600080fd5b81019080803590602001906401000000008111156106ce57600080fd5b8201836020820111156106e057600080fd5b8035906020019184600183028401116401000000008311171561070257600080fd5b91908080601f016020809104026020016040519081016040528093929190818152602001838380828437600081840152601f19601f82011690508083019250505050505050919291929050505061266c565b604051808060200180602001806020018773ffffffffffffffffffffffffffffffffffffffff1673ffffffffffffffffffffffffffffffffffffffff1681526020018060200186815260200185810385528b818151815260200191508051906020019080838360005b838110156107d85780820151818401526020810190506107bd565b50505050905090810190601f1680156108055780820380516001836020036101000a031916815260200191505b5085810384528a818151815260200191508051906020019080838360005b8381101561083e578082015181840152602081019050610823565b50505050905090810190601f16801561086b5780820380516001836020036101000a031916815260200191505b50858103835289818151815260200191508051906020019080838360005b838110156108a4578082015181840152602081019050610889565b50505050905090810190601f1680156108d15780820380516001836020036101000a031916815260200191505b50858103825287818151815260200191508051906020019080838360005b8381101561090a5780820151818401526020810190506108ef565b50505050905090810190601f1680156109375780820380516001836020036101000a031916815260200191505b509a505050505050505050505060405180910390f35b610a8e6004803603608081101561096357600080fd5b810190808035906020019064010000000081111561098057600080fd5b82018360208201111561099257600080fd5b803590602001918460018302840111640100000000831117156109b457600080fd5b9091929391929390803573ffffffffffffffffffffffffffffffffffffffff169060200190929190803590602001906401000000008111156109f557600080fd5b820183602082011115610a0757600080fd5b80359060200191846001830284011164010000000083111715610a2957600080fd5b909192939192939080359060200190640100000000811115610a4a57600080fd5b820183602082011115610a5c57600080fd5b80359060200191846001830284011164010000000083111715610a7e57600080fd5b909192939192939050505061293e565b604051808215151515815260200191505060405180910390f35b600088888080601f016020809104026020016040519081016040528093929190818152602001838380828437600081840152601f19601f82011690508083019250505050505050600073ffffffffffffffffffffffffffffffffffffffff166000826040518082805190602001908083835b60208310610b3d5780518252602082019150602081019050602083039250610b1a565b6001836020036101000a038019825116818451168082178552505050505050905001915050908152602001604051809103902060030160009054906101000a900473ffffffffffffffffffffffffffffffffffffffff1673ffffffffffffffffffffffffffffffffffffffff1614610c1d576040517f08c379a00000000000000000000000000000000000000000000000000000000081526004018080602001828103825260208152602001807f446f63756d656e7420686173206265656e20616c72656164792061646465642e81525060200191505060405180910390fd5b898960008c8c60405180838380828437808301925050509250505090815260200160405180910390206000019190610c5692919061304b565b50878760008c8c60405180838380828437808301925050509250505090815260200160405180910390206001019190610c9092919061304b565b50858560008c8c60405180838380828437808301925050509250505090815260200160405180910390206002019190610cca92919061304b565b503360008b8b604051808383808284378083019250505092505050908152602001604051809103902060030160006101000a81548173ffffffffffffffffffffffffffffffffffffffff021916908373ffffffffffffffffffffffffffffffffffffffff160217905550838360008c8c60405180838380828437808301925050509250505090815260200160405180910390206007019190610d6d92919061304b565b504260008b8b604051808383808284378083019250505092505050908152602001604051809103902060080181905550898960405180838380828437808301925050509250505060405180910390207f10139f827a9aa59dba6be467ace4fb3b388d30087e3cfd9b014ff81ce11ac2c260405160405180910390a2600191505098975050505050505050565b606082828080601f016020809104026020016040519081016040528093929190818152602001838380828437600081840152601f19601f82011690508083019250505050505050600073ffffffffffffffffffffffffffffffffffffffff166000826040518082805190602001908083835b60208310610e8e5780518252602082019150602081019050602083039250610e6b565b6001836020036101000a038019825116818451168082178552505050505050905001915050908152602001604051809103902060030160009054906101000a900473ffffffffffffffffffffffffffffffffffffffff1673ffffffffffffffffffffffffffffffffffffffff161415610f6f576040517f08c379a00000000000000000000000000000000000000000000000000000000081526004018080602001828103825260188152602001807f446f63756d656e7420646f6573206e6f742065786973742e000000000000000081525060200191505060405180910390fd5b60008085856040518083838082843780830192505050925050509081526020016040518091039020600401805490509050606081604051908082528060200260200182016040528015610fd15781602001602082028038833980820191505090505b50905060008090505b828110156112e257610fea6130cb565b600088886040518083838082843780830192505050925050509081526020016040518091039020600401828154811061101f57fe5b90600052602060002090600602016040518060c0016040529081600082018054600181600116156101000203166002900480601f0160208091040260200160405190810160405280929190818152602001828054600181600116156101000203166002900480156110d15780601f106110a6576101008083540402835291602001916110d1565b820191906000526020600020905b8154815290600101906020018083116110b457829003601f168201915b50505050508152602001600182018054600181600116156101000203166002900480601f0160208091040260200160405190810160405280929190818152602001828054600181600116156101000203166002900480156111735780601f1061114857610100808354040283529160200191611173565b820191906000526020600020905b81548152906001019060200180831161115657829003601f168201915b505050505081526020016002820160009054906101000a900473ffffffffffffffffffffffffffffffffffffffff1673ffffffffffffffffffffffffffffffffffffffff1673ffffffffffffffffffffffffffffffffffffffff16815260200160038201548152602001600482015481526020016005820160009054906101000a900460ff1615151515815250509050600115156000898960405180838380828437808301925050509250505090815260200160405180910390206006016000836040015173ffffffffffffffffffffffffffffffffffffffff1673ffffffffffffffffffffffffffffffffffffffff16815260200190815260200160002060009054906101000a900460ff16151514156112d457806040015183838151811061129957fe5b602002602001019073ffffffffffffffffffffffffffffffffffffffff16908173ffffffffffffffffffffffffffffffffffffffff16815250505b508080600101915050610fda565b5080935050505092915050565b600082828080601f016020809104026020016040519081016040528093929190818152602001838380828437600081840152601f19601f82011690508083019250505050505050600073ffffffffffffffffffffffffffffffffffffffff166000826040518082805190602001908083835b602083106113845780518252602082019150602081019050602083039250611361565b6001836020036101000a038019825116818451168082178552505050505050905001915050908152602001604051809103902060030160009054906101000a900473ffffffffffffffffffffffffffffffffffffffff1673ffffffffffffffffffffffffffffffffffffffff161415611465576040517f08c379a00000000000000000000000000000000000000000000000000000000081526004018080602001828103825260188152602001807f446f63756d656e7420646f6573206e6f742065786973742e000000000000000081525060200191505060405180910390fd5b83838080601f016020809104026020016040519081016040528093929190818152602001838380828437600081840152601f19601f8201169050808301925050505050505033600115156000836040518082805190602001908083835b602083106114e557805182526020820191506020810190506020830392506114c2565b6001836020036101000a038019825116818451168082178552505050505050905001915050908152602001604051809103902060050160008373ffffffffffffffffffffffffffffffffffffffff1673ffffffffffffffffffffffffffffffffffffffff16815260200190815260200160002060009054906101000a900460ff161515146115be576040517f08c379a00000000000000000000000000000000000000000000000000000000081526004018080602001828103825260348152602001806132936034913960400191505060405180910390fd5b85858080601f016020809104026020016040519081016040528093929190818152602001838380828437600081840152601f19601f8201169050808301925050505050505033600015156000836040518082805190602001908083835b6020831061163e578051825260208201915060208101905060208303925061161b565b6001836020036101000a038019825116818451168082178552505050505050905001915050908152602001604051809103902060060160008373ffffffffffffffffffffffffffffffffffffffff1673ffffffffffffffffffffffffffffffffffffffff16815260200190815260200160002060009054906101000a900460ff16151514611717576040517f08c379a000000000000000000000000000000000000000000000000000000000815260040180806020018281038252603581526020018061321b6035913960400191505060405180910390fd5b600160008989604051808383808284378083019250505092505050908152602001604051809103902060060160003373ffffffffffffffffffffffffffffffffffffffff1673ffffffffffffffffffffffffffffffffffffffff16815260200190815260200160002060006101000a81548160ff0219169083151502179055506060600089896040518083838082843780830192505050925050509081526020016040518091039020600401805480602002602001604051908101604052809291908181526020016000905b828210156119de57838290600052602060002090600602016040518060c0016040529081600082018054600181600116156101000203166002900480601f01602080910402602001604051908101604052809291908181526020018280546001816001161561010002031660029004801561189f5780601f106118745761010080835404028352916020019161189f565b820191906000526020600020905b81548152906001019060200180831161188257829003601f168201915b50505050508152602001600182018054600181600116156101000203166002900480601f0160208091040260200160405190810160405280929190818152602001828054600181600116156101000203166002900480156119415780601f1061191657610100808354040283529160200191611941565b820191906000526020600020905b81548152906001019060200180831161192457829003601f168201915b505050505081526020016002820160009054906101000a900473ffffffffffffffffffffffffffffffffffffffff1673ffffffffffffffffffffffffffffffffffffffff1673ffffffffffffffffffffffffffffffffffffffff16815260200160038201548152602001600482015481526020016005820160009054906101000a900460ff161515151581525050815260200190600101906117e3565b50505050905060008090505b8151811015611bc0573373ffffffffffffffffffffffffffffffffffffffff16828281518110611a1657fe5b60200260200101516040015173ffffffffffffffffffffffffffffffffffffffff161415611bb3574260008b8b60405180838380828437808301925050509250505090815260200160405180910390206004018281548110611a7457fe5b9060005260206000209060060201600301819055506000828281518110611a9757fe5b6020026020010151608001511115611bb2576000808b8b60405180838380828437808301925050509250505090815260200160405180910390206004018281548110611adf57fe5b906000526020600020906006020160040181905550600160008b8b60405180838380828437808301925050509250505090815260200160405180910390206004018281548110611b2b57fe5b906000526020600020906006020160050160006101000a81548160ff0219169083151502179055503373ffffffffffffffffffffffffffffffffffffffff166108fc838381518110611b7957fe5b6020026020010151608001519081150290604051600060405180830381858888f19350505050158015611bb0573d6000803e3d6000fd5b505b5b80806001019150506119ea565b503373ffffffffffffffffffffffffffffffffffffffff167fce53493f4218edd5fe7ec8425b995f3de4ebc408c39de722b9c9823deda57c8d8a8a60405180806020018281038252848482818152602001925080828437600081840152601f19601f820116905080830192505050935050505060405180910390a26001965050505050505092915050565b606080600080600086600073ffffffffffffffffffffffffffffffffffffffff166000826040518082805190602001908083835b60208310611ca25780518252602082019150602081019050602083039250611c7f565b6001836020036101000a038019825116818451168082178552505050505050905001915050908152602001604051809103902060030160009054906101000a900473ffffffffffffffffffffffffffffffffffffffff1673ffffffffffffffffffffffffffffffffffffffff161415611d83576040517f08c379a00000000000000000000000000000000000000000000000000000000081526004018080602001828103825260188152602001807f446f63756d656e7420646f6573206e6f742065786973742e000000000000000081525060200191505060405180910390fd5b8787600115156000836040518082805190602001908083835b60208310611dbf5780518252602082019150602081019050602083039250611d9c565b6001836020036101000a038019825116818451168082178552505050505050905001915050908152602001604051809103902060050160008373ffffffffffffffffffffffffffffffffffffffff1673ffffffffffffffffffffffffffffffffffffffff16815260200190815260200160002060009054906101000a900460ff16151514611e98576040517f08c379a00000000000000000000000000000000000000000000000000000000081526004018080602001828103825260348152602001806132936034913960400191505060405180910390fd5b606060008b6040518082805190602001908083835b60208310611ed05780518252602082019150602081019050602083039250611ead565b6001836020036101000a0380198251168184511680821785525050505050509050019150509081526020016040518091039020600401805480602002602001604051908101604052809291908181526020016000905b8282101561212157838290600052602060002090600602016040518060c0016040529081600082018054600181600116156101000203166002900480601f016020809104026020016040519081016040528092919081815260200182805460018160011615610100020316600290048015611fe25780601f10611fb757610100808354040283529160200191611fe2565b820191906000526020600020905b815481529060010190602001808311611fc557829003601f168201915b50505050508152602001600182018054600181600116156101000203166002900480601f0160208091040260200160405190810160405280929190818152602001828054600181600116156101000203166002900480156120845780601f1061205957610100808354040283529160200191612084565b820191906000526020600020905b81548152906001019060200180831161206757829003601f168201915b505050505081526020016002820160009054906101000a900473ffffffffffffffffffffffffffffffffffffffff1673ffffffffffffffffffffffffffffffffffffffff1673ffffffffffffffffffffffffffffffffffffffff16815260200160038201548152602001600482015481526020016005820160009054906101000a900460ff16151515158152505081526020019060010190611f26565b50505050905061212f6130cb565b60008090505b82518110156121ab576121466130cb565b83828151811061215257fe5b602002602001015190508c73ffffffffffffffffffffffffffffffffffffffff16816040015173ffffffffffffffffffffffffffffffffffffffff16141561219d57809250506121ab565b508080600101915050612135565b5080600001518160200151826060015183608001518460a001518494508393509950995099509950995050505050509295509295909350565b606081600073ffffffffffffffffffffffffffffffffffffffff166000826040518082805190602001908083835b602083106122355780518252602082019150602081019050602083039250612212565b6001836020036101000a038019825116818451168082178552505050505050905001915050908152602001604051809103902060030160009054906101000a900473ffffffffffffffffffffffffffffffffffffffff1673ffffffffffffffffffffffffffffffffffffffff161415612316576040517f08c379a00000000000000000000000000000000000000000000000000000000081526004018080602001828103825260188152602001807f446f63756d656e7420646f6573206e6f742065786973742e000000000000000081525060200191505060405180910390fd5b60606000846040518082805190602001908083835b6020831061234e578051825260208201915060208101905060208303925061232b565b6001836020036101000a0380198251168184511680821785525050505050509050019150509081526020016040518091039020600401805480602002602001604051908101604052809291908181526020016000905b8282101561259f57838290600052602060002090600602016040518060c0016040529081600082018054600181600116156101000203166002900480601f0160208091040260200160405190810160405280929190818152602001828054600181600116156101000203166002900480156124605780601f1061243557610100808354040283529160200191612460565b820191906000526020600020905b81548152906001019060200180831161244357829003601f168201915b50505050508152602001600182018054600181600116156101000203166002900480601f0160208091040260200160405190810160405280929190818152602001828054600181600116156101000203166002900480156125025780601f106124d757610100808354040283529160200191612502565b820191906000526020600020905b8154815290600101906020018083116124e557829003601f168201915b505050505081526020016002820160009054906101000a900473ffffffffffffffffffffffffffffffffffffffff1673ffffffffffffffffffffffffffffffffffffffff1673ffffffffffffffffffffffffffffffffffffffff16815260200160038201548152602001600482015481526020016005820160009054906101000a900460ff161515151581525050815260200190600101906123a4565b505050509050606081516040519080825280602002602001820160405280156125d75781602001602082028038833980820191505090505b50905060008090505b8251811015612660576125f16130cb565b8382815181106125fd57fe5b60200260200101519050806040015183838151811061261857fe5b602002602001019073ffffffffffffffffffffffffffffffffffffffff16908173ffffffffffffffffffffffffffffffffffffffff16815250505080806001019150506125e0565b50809350505050919050565b600081805160208101820180518482526020830160208501208183528095505050505050600091509050806000018054600181600116156101000203166002900480601f01602080910402602001604051908101604052809291908181526020018280546001816001161561010002031660029004801561272e5780601f106127035761010080835404028352916020019161272e565b820191906000526020600020905b81548152906001019060200180831161271157829003601f168201915b505050505090806001018054600181600116156101000203166002900480601f0160208091040260200160405190810160405280929190818152602001828054600181600116156101000203166002900480156127cc5780601f106127a1576101008083540402835291602001916127cc565b820191906000526020600020905b8154815290600101906020018083116127af57829003601f168201915b505050505090806002018054600181600116156101000203166002900480601f01602080910402602001604051908101604052809291908181526020018280546001816001161561010002031660029004801561286a5780601f1061283f5761010080835404028352916020019161286a565b820191906000526020600020905b81548152906001019060200180831161284d57829003601f168201915b5050505050908060030160009054906101000a900473ffffffffffffffffffffffffffffffffffffffff1690806007018054600181600116156101000203166002900480601f01602080910402602001604051908101604052809291908181526020018280546001816001161561010002031660029004801561292e5780601f106129035761010080835404028352916020019161292e565b820191906000526020600020905b81548152906001019060200180831161291157829003601f168201915b5050505050908060080154905086565b600087878080601f016020809104026020016040519081016040528093929190818152602001838380828437600081840152601f19601f82011690508083019250505050505050600073ffffffffffffffffffffffffffffffffffffffff166000826040518082805190602001908083835b602083106129d357805182526020820191506020810190506020830392506129b0565b6001836020036101000a038019825116818451168082178552505050505050905001915050908152602001604051809103902060030160009054906101000a900473ffffffffffffffffffffffffffffffffffffffff1673ffffffffffffffffffffffffffffffffffffffff161415612ab4576040517f08c379a00000000000000000000000000000000000000000000000000000000081526004018080602001828103825260188152602001807f446f63756d656e7420646f6573206e6f742065786973742e000000000000000081525060200191505060405180910390fd5b88888080601f016020809104026020016040519081016040528093929190818152602001838380828437600081840152601f19601f820116905080830192505050505050503373ffffffffffffffffffffffffffffffffffffffff166000826040518082805190602001908083835b60208310612b465780518252602082019150602081019050602083039250612b23565b6001836020036101000a038019825116818451168082178552505050505050905001915050908152602001604051809103902060030160009054906101000a900473ffffffffffffffffffffffffffffffffffffffff1673ffffffffffffffffffffffffffffffffffffffff1614612c09576040517f08c379a00000000000000000000000000000000000000000000000000000000081526004018080602001828103825260438152602001806132506043913960600191505060405180910390fd5b89898080601f016020809104026020016040519081016040528093929190818152602001838380828437600081840152601f19601f8201169050808301925050505050505088600015156000836040518082805190602001908083835b60208310612c895780518252602082019150602081019050602083039250612c66565b6001836020036101000a038019825116818451168082178552505050505050905001915050908152602001604051809103902060050160008373ffffffffffffffffffffffffffffffffffffffff1673ffffffffffffffffffffffffffffffffffffffff16815260200190815260200160002060009054906101000a900460ff16151514612d62576040517f08c379a000000000000000000000000000000000000000000000000000000000815260040180806020018281038252605c8152602001806131bf605c913960600191505060405180910390fd5b60008c8c60405180838380828437808301925050509250505090815260200160405180910390206004016040518060c001604052808b8b8080601f016020809104026020016040519081016040528093929190818152602001838380828437600081840152601f19601f82011690508083019250505050505050815260200189898080601f016020809104026020016040519081016040528093929190818152602001838380828437600081840152601f19601f8201169050808301925050505050505081526020018c73ffffffffffffffffffffffffffffffffffffffff1681526020016000815260200134815260200160001515815250908060018154018082558091505090600182039060005260206000209060060201600090919290919091506000820151816000019080519060200190612ea2929190613119565b506020820151816001019080519060200190612ebf929190613119565b5060408201518160020160006101000a81548173ffffffffffffffffffffffffffffffffffffffff021916908373ffffffffffffffffffffffffffffffffffffffff160217905550606082015181600301556080820151816004015560a08201518160050160006101000a81548160ff021916908315150217905550505050600160008d8d604051808383808284378083019250505092505050908152602001604051809103902060050160008c73ffffffffffffffffffffffffffffffffffffffff1673ffffffffffffffffffffffffffffffffffffffff16815260200190815260200160002060006101000a81548160ff0219169083151502179055508973ffffffffffffffffffffffffffffffffffffffff167faff564d9b96a28fa331f083f6bfd9085bf6526a7c5aa0672f8570950f12b500e8d8d60405180806020018281038252848482818152602001925080828437600081840152601f19601f820116905080830192505050935050505060405180910390a26001945050505050979650505050505050565b828054600181600116156101000203166002900490600052602060002090601f016020900481019282601f1061308c57803560ff19168380011785556130ba565b828001600101855582156130ba579182015b828111156130b957823582559160200191906001019061309e565b5b5090506130c79190613199565b5090565b6040518060c001604052806060815260200160608152602001600073ffffffffffffffffffffffffffffffffffffffff16815260200160008152602001600081526020016000151581525090565b828054600181600116156101000203166002900490600052602060002090601f016020900481019282601f1061315a57805160ff1916838001178555613188565b82800160010185558215613188579182015b8281111561318757825182559160200191906001019061316c565b5b5090506131959190613199565b5090565b6131bb91905b808211156131b757600081600090555060010161319f565b5090565b9056fe5369676e61746f727920697320616c726561647920616464656420746f206120646f63756d656e742e2054686520726571756573746564206f7065726174696f6e2063616e206265206578656375746564206f6e6c79206f6e63652e5369676e61746f7279206861766520616c7265616479207369676e6564207468652073706563696669656420646f63756d656e742e4f6e6c79206f776e657220697320616c6c6f77656420746f20706572666f726d2074686973206b696e64206f6620616374696f6e206f76657220646f63756d656e742e5369676e61746f7279206973206e6f7720616c6c6f77656420746f207369676e2073706563696669656420646f63756d656e742ea265627a7a72315820b21630b7a3f578a9c81bb90b9e7b0f89a1174c196dd51eed4c101a8822a6b36164736f6c63430005100032",
  "source": "pragma solidity >=0.5.16 <0.9.0;\n\n/**\n* Document Signer Smart Contract\n*/\ncontract DocumentSigner {\n\n    struct Document {\n        string documentHash;\n        string name;\n        string description;\n        address owner;\n        Signatory [] signatories;\n        mapping (address => bool) addedSignatories;\n        mapping (address => bool) signatures;\n        string algorithm;\n        uint256 createdAt;\n    }\n\n    struct Signatory {\n        string fullName;\n        string description;\n        address signatoryAddress;\n        uint256 signedAt;\n        uint256 amountToBePaid;\n        bool paid;\n    }\n\n    /* Documents mapped by hash */\n    mapping (string => Document) public documents;\n\n    /**\n    * Events\n    */\n    event DocumentAdded(string indexed documentHash);\n    event SignatoryAdded(string documentHash, address indexed signatoryAddress);\n    event DocumentSigned(string documentHash, address indexed signatoryAddress);\n\n    /**\n    * Require that document does not exist.\n    * @param documentHash Hash of a document to check\n    */\n    modifier documentDoesNotExist(string memory documentHash) {\n        require(documents[documentHash].owner == address(0), \"Document has been already added.\");\n        _;\n    }\n\n    /**\n    * Require that document exist.\n    * @param documentHash Hash of a document to check\n    */\n    modifier documentExist(string memory documentHash) {\n        require(documents[documentHash].owner != address(0), \"Document does not exist.\");\n        _;\n    }\n\n    /**\n    * Require that the signatory is added to a document.\n    *\n    * @param documentHash Hash of a document to check\n    * @param signatoryAddress Address of a signatory\n    */\n    modifier signatoryExist(string memory documentHash, address signatoryAddress) {\n        require(\n            documents[documentHash].addedSignatories[signatoryAddress] == true,\n            \"Signatory is now allowed to sign specified document.\"\n        );\n        _;\n    }\n\n    /**\n    * Require that signatory does not exists within a document.\n    *\n    * @param documentHash Hash of a document to check\n    * @param signatoryAddress Address of a signatory\n    */\n    modifier signatoryDoesNotExist(string memory documentHash, address signatoryAddress) {\n        require(\n            documents[documentHash].addedSignatories[signatoryAddress] == false,\n            \"Signatory is already added to a document. The requested operation can be executed only once.\"\n        );\n        _;\n    }\n\n    /**\n    * Require that the signatory did not sign a specified document.\n    *\n    * @param documentHash Hash of a document to check\n    * @param signatoryAddress Address of a signatory\n    */\n    modifier signatoryDidNotSign(string memory documentHash, address signatoryAddress) {\n        require(\n            documents[documentHash].signatures[signatoryAddress] == false,\n            \"Signatory have already signed the specified document.\"\n        );\n        _;\n    }\n\n    /**\n    * Require that call comes from document owner.\n    * @param documentHash Hash of a document to check\n    */\n    modifier onlyDocumentOwner(string memory documentHash) {\n        require(\n            documents[documentHash].owner == msg.sender,\n            \"Only owner is allowed to perform this kind of action over document.\");\n        _;\n    }\n\n    /**\n    * Add new document to the smart contract storage.\n    *\n    * @param documentHash Hash of a document to add\n    * @param name Name of a document\n    * @param description Arbitrary description of a document\n    * @param algorithm Algorithm that the document is hashed with\n    *\n    * returns bool\n    */\n    function addDocument(string calldata documentHash,\n        string calldata name,\n        string calldata description,\n        string calldata algorithm) external\n    documentDoesNotExist(documentHash) returns (bool) {\n        documents[documentHash].documentHash = documentHash;\n        documents[documentHash].name = name;\n        documents[documentHash].description = description;\n        documents[documentHash].owner = msg.sender;\n        documents[documentHash].algorithm = algorithm;\n        documents[documentHash].createdAt = block.timestamp;\n\n        emit DocumentAdded(documentHash);\n\n        return true;\n    }\n\n    /**\n    * Add new user (signatory) to the smart contract and allow them to sign a specified document.\n    * Note: Only owner of a document can perform this action.\n    *\n    * @param documentHash Hash of a document to check\n    * @param signatoryAddress Address of a signatory to allow to sign specified document\n    * @param fullName Full name of a signatory that can be used to identify a person\n    * @param description Arbitrary description of a signatory or their role (i.e. director, employee, seller, etc.)\n    *\n    * returns bool\n    */\n    function addSignatory(\n        string calldata documentHash,\n        address signatoryAddress,\n        string calldata fullName,\n        string calldata description\n    ) external payable\n    documentExist(documentHash)\n    onlyDocumentOwner(documentHash)\n    signatoryDoesNotExist(documentHash, signatoryAddress)\n    returns (bool) {\n        documents[documentHash].signatories.push(\n            Signatory({\n                fullName: fullName,\n                description: description,\n                signatoryAddress: signatoryAddress,\n                signedAt: 0,\n                amountToBePaid: msg.value,\n                paid: false\n            })\n        );\n        documents[documentHash].addedSignatories[signatoryAddress] = true;\n        emit SignatoryAdded(documentHash, signatoryAddress);\n\n        return true;\n    }\n\n    /**\n    * Add signature to the document specified by a document hash.\n    * If required send the specified ETH amount to the signer.\n    *\n    * @param documentHash Hash of a document to sign\n    *\n    * returns bool\n    */\n    function signDocument(string calldata documentHash)\n    external\n    documentExist(documentHash)\n    signatoryExist(documentHash, msg.sender)\n    signatoryDidNotSign(documentHash, msg.sender)\n    returns (bool) {\n        // Mark document as signed\n        documents[documentHash].signatures[msg.sender] = true;\n\n        // Update signature timestamp & make payment if needed\n        Signatory [] memory signatories = documents[documentHash].signatories;\n\n        for (uint i = 0; i < signatories.length; i++) {\n            if (signatories[i].signatoryAddress == msg.sender) {\n                documents[documentHash].signatories[i].signedAt = block.timestamp;\n                if (signatories[i].amountToBePaid > 0) {\n                    documents[documentHash].signatories[i].amountToBePaid = 0;\n                    documents[documentHash].signatories[i].paid = true;\n                    msg.sender.transfer(signatories[i].amountToBePaid);\n                }\n            }\n        }\n\n        emit DocumentSigned(documentHash, msg.sender);\n\n        return true;\n    }\n\n    /**\n    * Get signatories added to the document.\n    *\n    * @param documentHash Hash of a document of which signatories are requested\n    *\n    * returns address []\n    */\n    function getSignatories(string memory documentHash) public view documentExist(documentHash)\n    returns (address [] memory) {\n        Signatory [] memory signatories = documents[documentHash].signatories;\n        address [] memory addresses = new address [] (signatories.length);\n\n        for (uint i = 0; i < signatories.length; i++) {\n            Signatory memory signatory = signatories[i];\n            addresses[i] = signatory.signatoryAddress;\n        }\n\n        return (addresses);\n    }\n\n    /**\n    * Get signatory information.\n    *\n    * @param documentHash Hash of a document related to the signatory\n    * @param signatoryAddress Address of a signatory of which info is requested\n    *\n    * returns (string fullName, string description, uint256 signedAt, uint256 amountToBePaid)\n    */\n    function getSignatoryInformation(string memory documentHash, address signatoryAddress)\n    public view documentExist(documentHash) signatoryExist(documentHash, signatoryAddress)\n    returns (string memory, string memory, uint256, uint256, bool) {\n        Signatory [] memory signatories = documents[documentHash].signatories;\n        Signatory memory targetSignatory;\n\n        for (uint i = 0; i < signatories.length; i++) {\n            Signatory memory signatory = signatories[i];\n            if (signatory.signatoryAddress == signatoryAddress) {\n                targetSignatory = signatory;\n                break;\n            }\n        }\n\n        return (\n            targetSignatory.fullName,\n            targetSignatory.description,\n            targetSignatory.signedAt,\n            targetSignatory.amountToBePaid,\n            targetSignatory.paid\n        );\n    }\n\n    /**\n    * Get document signatures in form of addresses of the signatories who signed the specified document.\n    *\n    * @param documentHash Hash of a document of which to retrieve signatures\n    *\n    * returns address []\n    */\n    function getSignatures(string calldata documentHash) external view documentExist(documentHash) returns (address [] memory) {\n        uint256 totalSignatories = documents[documentHash].signatories.length;\n        address [] memory signatures = new address[](totalSignatories);\n        for (uint i = 0; i < totalSignatories; i++) {\n            Signatory memory signatory = documents[documentHash].signatories[i];\n            if (documents[documentHash].signatures[signatory.signatoryAddress] == true) {\n                signatures[i] = signatory.signatoryAddress;\n            }\n        }\n\n        return signatures;\n    }\n}\n",
  "sourcePath": "/home/david/blockchain/blockchain-developer-bootcamp-final-project/smart-contracts/document-signer/contracts/DocumentSigner.sol",
  "compiler": {
    "name": "solc",
    "version": "0.5.16+commit.9c3226ce.Emscripten.clang"
  },
  "schemaVersion": "3.4.3",
  "updatedAt": "2021-11-21T22:39:57.472Z",
  "devdoc": {
    "methods": {
      "addDocument(string,string,string,string)": {
        "params": {
          "algorithm": "Algorithm that the document is hashed with    * returns bool",
          "description": "Arbitrary description of a document",
          "documentHash": "Hash of a document to add",
          "name": "Name of a document"
        }
      },
      "addSignatory(string,address,string,string)": {
        "params": {
          "description": "Arbitrary description of a signatory or their role (i.e. director, employee, seller, etc.)    * returns bool",
          "documentHash": "Hash of a document to check",
          "fullName": "Full name of a signatory that can be used to identify a person",
          "signatoryAddress": "Address of a signatory to allow to sign specified document"
        }
      },
      "getSignatories(string)": {
        "params": {
          "documentHash": "Hash of a document of which signatories are requested    * returns address []"
        }
      },
      "getSignatoryInformation(string,address)": {
        "params": {
          "documentHash": "Hash of a document related to the signatory",
          "signatoryAddress": "Address of a signatory of which info is requested    * returns (string fullName, string description, uint256 signedAt, uint256 amountToBePaid)"
        }
      },
      "getSignatures(string)": {
        "params": {
          "documentHash": "Hash of a document of which to retrieve signatures    * returns address []"
        }
      },
      "signDocument(string)": {
        "params": {
          "documentHash": "Hash of a document to sign    * returns bool"
        }
      }
    }
  },
  "userdoc": {
    "methods": {
      "addDocument(string,string,string,string)": {
        "notice": "Add new document to the smart contract storage."
      },
      "addSignatory(string,address,string,string)": {
        "notice": "Add new user (signatory) to the smart contract and allow them to sign a specified document. Note: Only owner of a document can perform this action."
      },
      "getSignatories(string)": {
        "notice": "Get signatories added to the document."
      },
      "getSignatoryInformation(string,address)": {
        "notice": "Get signatory information."
      },
      "getSignatures(string)": {
        "notice": "Get document signatures in form of addresses of the signatories who signed the specified document."
      },
      "signDocument(string)": {
        "notice": "Add signature to the document specified by a document hash. If required send the specified ETH amount to the signer."
      }
    },
    "notice": "Document Signer Smart Contract"
  }
}