{
  "contractName": "DocumentSigner",
  "abi": [
    {
      "anonymous": false,
      "inputs": [
        {
          "indexed": true,
          "internalType": "string",
          "name": "documentHash",
          "type": "string"
        }
      ],
      "name": "DocumentAdded",
      "type": "event"
    },
    {
      "anonymous": false,
      "inputs": [
        {
          "indexed": false,
          "internalType": "string",
          "name": "documentHash",
          "type": "string"
        },
        {
          "indexed": true,
          "internalType": "address",
          "name": "signatoryAddress",
          "type": "address"
        }
      ],
      "name": "DocumentSigned",
      "type": "event"
    },
    {
      "anonymous": false,
      "inputs": [
        {
          "indexed": false,
          "internalType": "string",
          "name": "documentHash",
          "type": "string"
        },
        {
          "indexed": true,
          "internalType": "address",
          "name": "signatoryAddress",
          "type": "address"
        }
      ],
      "name": "SignatoryAdded",
      "type": "event"
    },
    {
      "constant": true,
      "inputs": [
        {
          "internalType": "string",
          "name": "",
          "type": "string"
        }
      ],
      "name": "documents",
      "outputs": [
        {
          "internalType": "string",
          "name": "documentHash",
          "type": "string"
        },
        {
          "internalType": "string",
          "name": "name",
          "type": "string"
        },
        {
          "internalType": "string",
          "name": "description",
          "type": "string"
        },
        {
          "internalType": "address",
          "name": "owner",
          "type": "address"
        },
        {
          "internalType": "string",
          "name": "algorithm",
          "type": "string"
        },
        {
          "internalType": "uint256",
          "name": "createdAt",
          "type": "uint256"
        }
      ],
      "payable": false,
      "stateMutability": "view",
      "type": "function"
    },
    {
      "constant": false,
      "inputs": [
        {
          "internalType": "string",
          "name": "documentHash",
          "type": "string"
        },
        {
          "internalType": "string",
          "name": "name",
          "type": "string"
        },
        {
          "internalType": "string",
          "name": "description",
          "type": "string"
        },
        {
          "internalType": "string",
          "name": "algorithm",
          "type": "string"
        }
      ],
      "name": "addDocument",
      "outputs": [
        {
          "internalType": "bool",
          "name": "",
          "type": "bool"
        }
      ],
      "payable": false,
      "stateMutability": "nonpayable",
      "type": "function"
    },
    {
      "constant": false,
      "inputs": [
        {
          "internalType": "string",
          "name": "documentHash",
          "type": "string"
        },
        {
          "internalType": "address",
          "name": "signatoryAddress",
          "type": "address"
        },
        {
          "internalType": "string",
          "name": "fullName",
          "type": "string"
        },
        {
          "internalType": "string",
          "name": "description",
          "type": "string"
        }
      ],
      "name": "addSignatory",
      "outputs": [
        {
          "internalType": "bool",
          "name": "",
          "type": "bool"
        }
      ],
      "payable": false,
      "stateMutability": "nonpayable",
      "type": "function"
    },
    {
      "constant": false,
      "inputs": [
        {
          "internalType": "string",
          "name": "documentHash",
          "type": "string"
        }
      ],
      "name": "signDocument",
      "outputs": [
        {
          "internalType": "bool",
          "name": "",
          "type": "bool"
        }
      ],
      "payable": false,
      "stateMutability": "nonpayable",
      "type": "function"
    },
    {
      "constant": true,
      "inputs": [
        {
          "internalType": "string",
          "name": "documentHash",
          "type": "string"
        }
      ],
      "name": "getSignatories",
      "outputs": [
        {
          "internalType": "address[]",
          "name": "",
          "type": "address[]"
        }
      ],
      "payable": false,
      "stateMutability": "view",
      "type": "function"
    },
    {
      "constant": true,
      "inputs": [
        {
          "internalType": "string",
          "name": "documentHash",
          "type": "string"
        },
        {
          "internalType": "address",
          "name": "signatoryAddress",
          "type": "address"
        }
      ],
      "name": "getSignatoryInformation",
      "outputs": [
        {
          "internalType": "string",
          "name": "",
          "type": "string"
        },
        {
          "internalType": "string",
          "name": "",
          "type": "string"
        }
      ],
      "payable": false,
      "stateMutability": "view",
      "type": "function"
    },
    {
      "constant": true,
      "inputs": [
        {
          "internalType": "string",
          "name": "documentHash",
          "type": "string"
        }
      ],
      "name": "getSignatures",
      "outputs": [
        {
          "internalType": "address[]",
          "name": "",
          "type": "address[]"
        }
      ],
      "payable": false,
      "stateMutability": "view",
      "type": "function"
    }
  ],
  "bytecode": "0x608060405234801561001057600080fd5b50612ee2806100206000396000f3fe608060405234801561001057600080fd5b506004361061007d5760003560e01c8063629781de1161005b578063629781de1461037157806369c11e5a14610531578063b3dd697b14610641578063fe18292c146108f35761007d565b80630e72ca7a146100825780632404608f146102125780633040298a146102e0575b600080fd5b6101f86004803603608081101561009857600080fd5b81019080803590602001906401000000008111156100b557600080fd5b8201836020820111156100c757600080fd5b803590602001918460018302840111640100000000831117156100e957600080fd5b90919293919293908035906020019064010000000081111561010a57600080fd5b82018360208201111561011c57600080fd5b8035906020019184600183028401116401000000008311171561013e57600080fd5b90919293919293908035906020019064010000000081111561015f57600080fd5b82018360208201111561017157600080fd5b8035906020019184600183028401116401000000008311171561019357600080fd5b9091929391929390803590602001906401000000008111156101b457600080fd5b8201836020820111156101c657600080fd5b803590602001918460018302840111640100000000831117156101e857600080fd5b9091929391929390505050610a4e565b604051808215151515815260200191505060405180910390f35b6102896004803603602081101561022857600080fd5b810190808035906020019064010000000081111561024557600080fd5b82018360208201111561025757600080fd5b8035906020019184600183028401116401000000008311171561027957600080fd5b9091929391929390505050610d9f565b6040518080602001828103825283818151815260200191508051906020019060200280838360005b838110156102cc5780820151818401526020810190506102b1565b505050509050019250505060405180910390f35b610357600480360360208110156102f657600080fd5b810190808035906020019064010000000081111561031357600080fd5b82018360208201111561032557600080fd5b8035906020019184600183028401116401000000008311171561034757600080fd5b9091929391929390505050611270565b604051808215151515815260200191505060405180910390f35b61044a6004803603604081101561038757600080fd5b81019080803590602001906401000000008111156103a457600080fd5b8201836020820111156103b657600080fd5b803590602001918460018302840111640100000000831117156103d857600080fd5b91908080601f016020809104026020016040519081016040528093929190818152602001838380828437600081840152601f19601f820116905080830192505050505050509192919290803573ffffffffffffffffffffffffffffffffffffffff169060200190929190505050611923565b604051808060200180602001838103835285818151815260200191508051906020019080838360005b8381101561048e578082015181840152602081019050610473565b50505050905090810190601f1680156104bb5780820380516001836020036101000a031916815260200191505b50838103825284818151815260200191508051906020019080838360005b838110156104f45780820151818401526020810190506104d9565b50505050905090810190601f1680156105215780820380516001836020036101000a031916815260200191505b5094505050505060405180910390f35b6105ea6004803603602081101561054757600080fd5b810190808035906020019064010000000081111561056457600080fd5b82018360208201111561057657600080fd5b8035906020019184600183028401116401000000008311171561059857600080fd5b91908080601f016020809104026020016040519081016040528093929190818152602001838380828437600081840152601f19601f820116905080830192505050505050509192919290505050611e6e565b6040518080602001828103825283818151815260200191508051906020019060200280838360005b8381101561062d578082015181840152602081019050610612565b505050509050019250505060405180910390f35b6106fa6004803603602081101561065757600080fd5b810190808035906020019064010000000081111561067457600080fd5b82018360208201111561068657600080fd5b803590602001918460018302840111640100000000831117156106a857600080fd5b91908080601f016020809104026020016040519081016040528093929190818152602001838380828437600081840152601f19601f8201169050808301925050505050505091929192905050506122d1565b604051808060200180602001806020018773ffffffffffffffffffffffffffffffffffffffff1673ffffffffffffffffffffffffffffffffffffffff1681526020018060200186815260200185810385528b818151815260200191508051906020019080838360005b8381101561077e578082015181840152602081019050610763565b50505050905090810190601f1680156107ab5780820380516001836020036101000a031916815260200191505b5085810384528a818151815260200191508051906020019080838360005b838110156107e45780820151818401526020810190506107c9565b50505050905090810190601f1680156108115780820380516001836020036101000a031916815260200191505b50858103835289818151815260200191508051906020019080838360005b8381101561084a57808201518184015260208101905061082f565b50505050905090810190601f1680156108775780820380516001836020036101000a031916815260200191505b50858103825287818151815260200191508051906020019080838360005b838110156108b0578082015181840152602081019050610895565b50505050905090810190601f1680156108dd5780820380516001836020036101000a031916815260200191505b509a505050505050505050505060405180910390f35b610a346004803603608081101561090957600080fd5b810190808035906020019064010000000081111561092657600080fd5b82018360208201111561093857600080fd5b8035906020019184600183028401116401000000008311171561095a57600080fd5b9091929391929390803573ffffffffffffffffffffffffffffffffffffffff1690602001909291908035906020019064010000000081111561099b57600080fd5b8201836020820111156109ad57600080fd5b803590602001918460018302840111640100000000831117156109cf57600080fd5b9091929391929390803590602001906401000000008111156109f057600080fd5b820183602082011115610a0257600080fd5b80359060200191846001830284011164010000000083111715610a2457600080fd5b90919293919293905050506125a3565b604051808215151515815260200191505060405180910390f35b600088888080601f016020809104026020016040519081016040528093929190818152602001838380828437600081840152601f19601f82011690508083019250505050505050600073ffffffffffffffffffffffffffffffffffffffff166000826040518082805190602001908083835b60208310610ae35780518252602082019150602081019050602083039250610ac0565b6001836020036101000a038019825116818451168082178552505050505050905001915050908152602001604051809103902060030160009054906101000a900473ffffffffffffffffffffffffffffffffffffffff1673ffffffffffffffffffffffffffffffffffffffff1614610bc3576040517f08c379a00000000000000000000000000000000000000000000000000000000081526004018080602001828103825260208152602001807f446f63756d656e7420686173206265656e20616c72656164792061646465642e81525060200191505060405180910390fd5b898960008c8c60405180838380828437808301925050509250505090815260200160405180910390206000019190610bfc929190612c77565b50878760008c8c60405180838380828437808301925050509250505090815260200160405180910390206001019190610c36929190612c77565b50858560008c8c60405180838380828437808301925050509250505090815260200160405180910390206002019190610c70929190612c77565b503360008b8b604051808383808284378083019250505092505050908152602001604051809103902060030160006101000a81548173ffffffffffffffffffffffffffffffffffffffff021916908373ffffffffffffffffffffffffffffffffffffffff160217905550838360008c8c60405180838380828437808301925050509250505090815260200160405180910390206007019190610d13929190612c77565b504260008b8b604051808383808284378083019250505092505050908152602001604051809103902060080181905550898960405180838380828437808301925050509250505060405180910390207f10139f827a9aa59dba6be467ace4fb3b388d30087e3cfd9b014ff81ce11ac2c260405160405180910390a2600191505098975050505050505050565b606082828080601f016020809104026020016040519081016040528093929190818152602001838380828437600081840152601f19601f82011690508083019250505050505050600073ffffffffffffffffffffffffffffffffffffffff166000826040518082805190602001908083835b60208310610e345780518252602082019150602081019050602083039250610e11565b6001836020036101000a038019825116818451168082178552505050505050905001915050908152602001604051809103902060030160009054906101000a900473ffffffffffffffffffffffffffffffffffffffff1673ffffffffffffffffffffffffffffffffffffffff161415610f15576040517f08c379a00000000000000000000000000000000000000000000000000000000081526004018080602001828103825260188152602001807f446f63756d656e7420646f6573206e6f742065786973742e000000000000000081525060200191505060405180910390fd5b60008085856040518083838082843780830192505050925050509081526020016040518091039020600401805490509050606081604051908082528060200260200182016040528015610f775781602001602082028038833980820191505090505b50905060008090505b8281101561126357610f90612cf7565b6000888860405180838380828437808301925050509250505090815260200160405180910390206004018281548110610fc557fe5b9060005260206000209060040201604051806080016040529081600082018054600181600116156101000203166002900480601f0160208091040260200160405190810160405280929190818152602001828054600181600116156101000203166002900480156110775780601f1061104c57610100808354040283529160200191611077565b820191906000526020600020905b81548152906001019060200180831161105a57829003601f168201915b50505050508152602001600182018054600181600116156101000203166002900480601f0160208091040260200160405190810160405280929190818152602001828054600181600116156101000203166002900480156111195780601f106110ee57610100808354040283529160200191611119565b820191906000526020600020905b8154815290600101906020018083116110fc57829003601f168201915b505050505081526020016002820160009054906101000a900473ffffffffffffffffffffffffffffffffffffffff1673ffffffffffffffffffffffffffffffffffffffff1673ffffffffffffffffffffffffffffffffffffffff1681526020016003820154815250509050600115156000898960405180838380828437808301925050509250505090815260200160405180910390206006016000836040015173ffffffffffffffffffffffffffffffffffffffff1673ffffffffffffffffffffffffffffffffffffffff16815260200190815260200160002060009054906101000a900460ff161515141561125557806040015183838151811061121a57fe5b602002602001019073ffffffffffffffffffffffffffffffffffffffff16908173ffffffffffffffffffffffffffffffffffffffff16815250505b508080600101915050610f80565b5080935050505092915050565b600082828080601f016020809104026020016040519081016040528093929190818152602001838380828437600081840152601f19601f82011690508083019250505050505050600073ffffffffffffffffffffffffffffffffffffffff166000826040518082805190602001908083835b6020831061130557805182526020820191506020810190506020830392506112e2565b6001836020036101000a038019825116818451168082178552505050505050905001915050908152602001604051809103902060030160009054906101000a900473ffffffffffffffffffffffffffffffffffffffff1673ffffffffffffffffffffffffffffffffffffffff1614156113e6576040517f08c379a00000000000000000000000000000000000000000000000000000000081526004018080602001828103825260188152602001807f446f63756d656e7420646f6573206e6f742065786973742e000000000000000081525060200191505060405180910390fd5b83838080601f016020809104026020016040519081016040528093929190818152602001838380828437600081840152601f19601f8201169050808301925050505050505033600115156000836040518082805190602001908083835b602083106114665780518252602082019150602081019050602083039250611443565b6001836020036101000a038019825116818451168082178552505050505050905001915050908152602001604051809103902060050160008373ffffffffffffffffffffffffffffffffffffffff1673ffffffffffffffffffffffffffffffffffffffff16815260200190815260200160002060009054906101000a900460ff1615151461153f576040517f08c379a0000000000000000000000000000000000000000000000000000000008152600401808060200182810382526034815260200180612e7a6034913960400191505060405180910390fd5b600160008787604051808383808284378083019250505092505050908152602001604051809103902060060160003373ffffffffffffffffffffffffffffffffffffffff1673ffffffffffffffffffffffffffffffffffffffff16815260200190815260200160002060006101000a81548160ff0219169083151502179055506060600087876040518083838082843780830192505050925050509081526020016040518091039020600401805480602002602001604051908101604052809291908181526020016000905b828210156117e15783829060005260206000209060040201604051806080016040529081600082018054600181600116156101000203166002900480601f0160208091040260200160405190810160405280929190818152602001828054600181600116156101000203166002900480156116c75780601f1061169c576101008083540402835291602001916116c7565b820191906000526020600020905b8154815290600101906020018083116116aa57829003601f168201915b50505050508152602001600182018054600181600116156101000203166002900480601f0160208091040260200160405190810160405280929190818152602001828054600181600116156101000203166002900480156117695780601f1061173e57610100808354040283529160200191611769565b820191906000526020600020905b81548152906001019060200180831161174c57829003601f168201915b505050505081526020016002820160009054906101000a900473ffffffffffffffffffffffffffffffffffffffff1673ffffffffffffffffffffffffffffffffffffffff1673ffffffffffffffffffffffffffffffffffffffff1681526020016003820154815250508152602001906001019061160b565b50505050905060008090505b815181101561189a573373ffffffffffffffffffffffffffffffffffffffff1682828151811061181957fe5b60200260200101516040015173ffffffffffffffffffffffffffffffffffffffff16141561188d5742600089896040518083838082843780830192505050925050509081526020016040518091039020600401828154811061187757fe5b9060005260206000209060040201600301819055505b80806001019150506117ed565b503373ffffffffffffffffffffffffffffffffffffffff167fce53493f4218edd5fe7ec8425b995f3de4ebc408c39de722b9c9823deda57c8d888860405180806020018281038252848482818152602001925080828437600081840152601f19601f820116905080830192505050935050505060405180910390a2600194505050505092915050565b60608083600073ffffffffffffffffffffffffffffffffffffffff166000826040518082805190602001908083835b602083106119755780518252602082019150602081019050602083039250611952565b6001836020036101000a038019825116818451168082178552505050505050905001915050908152602001604051809103902060030160009054906101000a900473ffffffffffffffffffffffffffffffffffffffff1673ffffffffffffffffffffffffffffffffffffffff161415611a56576040517f08c379a00000000000000000000000000000000000000000000000000000000081526004018080602001828103825260188152602001807f446f63756d656e7420646f6573206e6f742065786973742e000000000000000081525060200191505060405180910390fd5b8484600115156000836040518082805190602001908083835b60208310611a925780518252602082019150602081019050602083039250611a6f565b6001836020036101000a038019825116818451168082178552505050505050905001915050908152602001604051809103902060050160008373ffffffffffffffffffffffffffffffffffffffff1673ffffffffffffffffffffffffffffffffffffffff16815260200190815260200160002060009054906101000a900460ff16151514611b6b576040517f08c379a0000000000000000000000000000000000000000000000000000000008152600401808060200182810382526034815260200180612e7a6034913960400191505060405180910390fd5b60606000886040518082805190602001908083835b60208310611ba35780518252602082019150602081019050602083039250611b80565b6001836020036101000a0380198251168184511680821785525050505050509050019150509081526020016040518091039020600401805480602002602001604051908101604052809291908181526020016000905b82821015611dcf5783829060005260206000209060040201604051806080016040529081600082018054600181600116156101000203166002900480601f016020809104026020016040519081016040528092919081815260200182805460018160011615610100020316600290048015611cb55780601f10611c8a57610100808354040283529160200191611cb5565b820191906000526020600020905b815481529060010190602001808311611c9857829003601f168201915b50505050508152602001600182018054600181600116156101000203166002900480601f016020809104026020016040519081016040528092919081815260200182805460018160011615610100020316600290048015611d575780601f10611d2c57610100808354040283529160200191611d57565b820191906000526020600020905b815481529060010190602001808311611d3a57829003601f168201915b505050505081526020016002820160009054906101000a900473ffffffffffffffffffffffffffffffffffffffff1673ffffffffffffffffffffffffffffffffffffffff1673ffffffffffffffffffffffffffffffffffffffff16815260200160038201548152505081526020019060010190611bf9565b50505050905060608060008090505b8351811015611e5a57611def612cf7565b848281518110611dfb57fe5b602002602001015190508a73ffffffffffffffffffffffffffffffffffffffff16816040015173ffffffffffffffffffffffffffffffffffffffff161415611e4c5780600001519350806020015192505b508080600101915050611dde565b508181975097505050505050509250929050565b606081600073ffffffffffffffffffffffffffffffffffffffff166000826040518082805190602001908083835b60208310611ebf5780518252602082019150602081019050602083039250611e9c565b6001836020036101000a038019825116818451168082178552505050505050905001915050908152602001604051809103902060030160009054906101000a900473ffffffffffffffffffffffffffffffffffffffff1673ffffffffffffffffffffffffffffffffffffffff161415611fa0576040517f08c379a00000000000000000000000000000000000000000000000000000000081526004018080602001828103825260188152602001807f446f63756d656e7420646f6573206e6f742065786973742e000000000000000081525060200191505060405180910390fd5b60606000846040518082805190602001908083835b60208310611fd85780518252602082019150602081019050602083039250611fb5565b6001836020036101000a0380198251168184511680821785525050505050509050019150509081526020016040518091039020600401805480602002602001604051908101604052809291908181526020016000905b828210156122045783829060005260206000209060040201604051806080016040529081600082018054600181600116156101000203166002900480601f0160208091040260200160405190810160405280929190818152602001828054600181600116156101000203166002900480156120ea5780601f106120bf576101008083540402835291602001916120ea565b820191906000526020600020905b8154815290600101906020018083116120cd57829003601f168201915b50505050508152602001600182018054600181600116156101000203166002900480601f01602080910402602001604051908101604052809291908181526020018280546001816001161561010002031660029004801561218c5780601f106121615761010080835404028352916020019161218c565b820191906000526020600020905b81548152906001019060200180831161216f57829003601f168201915b505050505081526020016002820160009054906101000a900473ffffffffffffffffffffffffffffffffffffffff1673ffffffffffffffffffffffffffffffffffffffff1673ffffffffffffffffffffffffffffffffffffffff1681526020016003820154815250508152602001906001019061202e565b5050505090506060815160405190808252806020026020018201604052801561223c5781602001602082028038833980820191505090505b50905060008090505b82518110156122c557612256612cf7565b83828151811061226257fe5b60200260200101519050806040015183838151811061227d57fe5b602002602001019073ffffffffffffffffffffffffffffffffffffffff16908173ffffffffffffffffffffffffffffffffffffffff1681525050508080600101915050612245565b50809350505050919050565b600081805160208101820180518482526020830160208501208183528095505050505050600091509050806000018054600181600116156101000203166002900480601f0160208091040260200160405190810160405280929190818152602001828054600181600116156101000203166002900480156123935780601f1061236857610100808354040283529160200191612393565b820191906000526020600020905b81548152906001019060200180831161237657829003601f168201915b505050505090806001018054600181600116156101000203166002900480601f0160208091040260200160405190810160405280929190818152602001828054600181600116156101000203166002900480156124315780601f1061240657610100808354040283529160200191612431565b820191906000526020600020905b81548152906001019060200180831161241457829003601f168201915b505050505090806002018054600181600116156101000203166002900480601f0160208091040260200160405190810160405280929190818152602001828054600181600116156101000203166002900480156124cf5780601f106124a4576101008083540402835291602001916124cf565b820191906000526020600020905b8154815290600101906020018083116124b257829003601f168201915b5050505050908060030160009054906101000a900473ffffffffffffffffffffffffffffffffffffffff1690806007018054600181600116156101000203166002900480601f0160208091040260200160405190810160405280929190818152602001828054600181600116156101000203166002900480156125935780601f1061256857610100808354040283529160200191612593565b820191906000526020600020905b81548152906001019060200180831161257657829003601f168201915b5050505050908060080154905086565b600087878080601f016020809104026020016040519081016040528093929190818152602001838380828437600081840152601f19601f82011690508083019250505050505050600073ffffffffffffffffffffffffffffffffffffffff166000826040518082805190602001908083835b602083106126385780518252602082019150602081019050602083039250612615565b6001836020036101000a038019825116818451168082178552505050505050905001915050908152602001604051809103902060030160009054906101000a900473ffffffffffffffffffffffffffffffffffffffff1673ffffffffffffffffffffffffffffffffffffffff161415612719576040517f08c379a00000000000000000000000000000000000000000000000000000000081526004018080602001828103825260188152602001807f446f63756d656e7420646f6573206e6f742065786973742e000000000000000081525060200191505060405180910390fd5b88888080601f016020809104026020016040519081016040528093929190818152602001838380828437600081840152601f19601f820116905080830192505050505050503373ffffffffffffffffffffffffffffffffffffffff166000826040518082805190602001908083835b602083106127ab5780518252602082019150602081019050602083039250612788565b6001836020036101000a038019825116818451168082178552505050505050905001915050908152602001604051809103902060030160009054906101000a900473ffffffffffffffffffffffffffffffffffffffff1673ffffffffffffffffffffffffffffffffffffffff161461286e576040517f08c379a0000000000000000000000000000000000000000000000000000000008152600401808060200182810382526043815260200180612e376043913960600191505060405180910390fd5b89898080601f016020809104026020016040519081016040528093929190818152602001838380828437600081840152601f19601f8201169050808301925050505050505088600015156000836040518082805190602001908083835b602083106128ee57805182526020820191506020810190506020830392506128cb565b6001836020036101000a038019825116818451168082178552505050505050905001915050908152602001604051809103902060050160008373ffffffffffffffffffffffffffffffffffffffff1673ffffffffffffffffffffffffffffffffffffffff16815260200190815260200160002060009054906101000a900460ff161515146129c7576040517f08c379a000000000000000000000000000000000000000000000000000000000815260040180806020018281038252605c815260200180612ddb605c913960600191505060405180910390fd5b60008c8c604051808383808284378083019250505092505050908152602001604051809103902060040160405180608001604052808b8b8080601f016020809104026020016040519081016040528093929190818152602001838380828437600081840152601f19601f82011690508083019250505050505050815260200189898080601f016020809104026020016040519081016040528093929190818152602001838380828437600081840152601f19601f8201169050808301925050505050505081526020018c73ffffffffffffffffffffffffffffffffffffffff1681526020016000815250908060018154018082558091505090600182039060005260206000209060040201600090919290919091506000820151816000019080519060200190612af8929190612d35565b506020820151816001019080519060200190612b15929190612d35565b5060408201518160020160006101000a81548173ffffffffffffffffffffffffffffffffffffffff021916908373ffffffffffffffffffffffffffffffffffffffff16021790555060608201518160030155505050600160008d8d604051808383808284378083019250505092505050908152602001604051809103902060050160008c73ffffffffffffffffffffffffffffffffffffffff1673ffffffffffffffffffffffffffffffffffffffff16815260200190815260200160002060006101000a81548160ff0219169083151502179055508973ffffffffffffffffffffffffffffffffffffffff167faff564d9b96a28fa331f083f6bfd9085bf6526a7c5aa0672f8570950f12b500e8d8d60405180806020018281038252848482818152602001925080828437600081840152601f19601f820116905080830192505050935050505060405180910390a26001945050505050979650505050505050565b828054600181600116156101000203166002900490600052602060002090601f016020900481019282601f10612cb857803560ff1916838001178555612ce6565b82800160010185558215612ce6579182015b82811115612ce5578235825591602001919060010190612cca565b5b509050612cf39190612db5565b5090565b60405180608001604052806060815260200160608152602001600073ffffffffffffffffffffffffffffffffffffffff168152602001600081525090565b828054600181600116156101000203166002900490600052602060002090601f016020900481019282601f10612d7657805160ff1916838001178555612da4565b82800160010185558215612da4579182015b82811115612da3578251825591602001919060010190612d88565b5b509050612db19190612db5565b5090565b612dd791905b80821115612dd3576000816000905550600101612dbb565b5090565b9056fe5369676e61746f727920697320616c726561647920616464656420746f206120646f63756d656e742e2054686520726571756573746564206f7065726174696f6e2063616e206265206578656375746564206f6e6c79206f6e63652e4f6e6c79206f776e657220697320616c6c6f77656420746f20706572666f726d2074686973206b696e64206f6620616374696f6e206f76657220646f63756d656e742e5369676e61746f7279206973206e6f7720616c6c6f77656420746f207369676e2073706563696669656420646f63756d656e742ea265627a7a7231582034a2259d3565fa3eb99eb35e8b8a4f6260b63d77686be15741e7022f3c5b3a9e64736f6c63430005100032",
  "source": "pragma solidity >=0.5.16 <0.9.0;\n\n/**\n* Document Signer Smart Contract\n*/\ncontract DocumentSigner {\n\n    struct Document {\n        string documentHash;\n        string name;\n        string description;\n        address owner;\n        Signatory [] signatories;\n        mapping (address => bool) addedSignatories;\n        mapping (address => bool) signatures;\n        string algorithm;\n        uint256 createdAt;\n    }\n\n    struct Signatory {\n        string fullName;\n        string description;\n        address signatoryAddress;\n        uint256 signedAt;\n    }\n\n    /* Documents mapped by hash */\n    mapping (string => Document) public documents;\n\n    /**\n    * Events\n    */\n    event DocumentAdded(string indexed documentHash);\n    event SignatoryAdded(string documentHash, address indexed signatoryAddress);\n    event DocumentSigned(string documentHash, address indexed signatoryAddress);\n\n    /**\n    * Require that document does not exist.\n    * @param documentHash Hash of a document to check\n    */\n    modifier documentDoesNotExist(string memory documentHash) {\n        require(documents[documentHash].owner == address(0), \"Document has been already added.\");\n        _;\n    }\n\n    /**\n    * Require that document exist.\n    * @param documentHash Hash of a document to check\n    */\n    modifier documentExist(string memory documentHash) {\n        require(documents[documentHash].owner != address(0), \"Document does not exist.\");\n        _;\n    }\n\n    /**\n    * Require that the signatory is added to a document.\n    *\n    * @param documentHash Hash of a document to check\n    * @param signatoryAddress Address of a signatory\n    */\n    modifier signatoryExist(string memory documentHash, address signatoryAddress) {\n        require(\n            documents[documentHash].addedSignatories[signatoryAddress] == true,\n            \"Signatory is now allowed to sign specified document.\"\n        );\n        _;\n    }\n\n    /**\n    * Require that signatory does not exists within a document.\n    *\n    * @param documentHash Hash of a document to check\n    * @param signatoryAddress Address of a signatory\n    */\n    modifier signatoryDoesNotExist(string memory documentHash, address signatoryAddress) {\n        require(\n            documents[documentHash].addedSignatories[signatoryAddress] == false,\n            \"Signatory is already added to a document. The requested operation can be executed only once.\"\n        );\n        _;\n    }\n\n    /**\n    * Require that call comes from document owner.\n    * @param documentHash Hash of a document to check\n    */\n    modifier onlyDocumentOwner(string memory documentHash) {\n        require(\n            documents[documentHash].owner == msg.sender,\n            \"Only owner is allowed to perform this kind of action over document.\");\n        _;\n    }\n\n    /**\n    * Add new document to the smart contract storage.\n    *\n    * @param documentHash Hash of a document to add\n    * @param name Name of a document\n    * @param description Arbitrary description of a document\n    * @param algorithm Algorithm that the document is hashed with\n    *\n    * returns bool\n    */\n    function addDocument(string calldata documentHash,\n        string calldata name,\n        string calldata description,\n        string calldata algorithm) external\n    documentDoesNotExist(documentHash) returns (bool) {\n        documents[documentHash].documentHash = documentHash;\n        documents[documentHash].name = name;\n        documents[documentHash].description = description;\n        documents[documentHash].owner = msg.sender;\n        documents[documentHash].algorithm = algorithm;\n        documents[documentHash].createdAt = block.timestamp;\n\n        emit DocumentAdded(documentHash);\n\n        return true;\n    }\n\n    /**\n    * Add new user (signatory) to the smart contract and allow them to sign a specified document.\n    * Note: Only owner of a document can perform this action.\n    *\n    * @param documentHash Hash of a document to check\n    * @param signatoryAddress Address of a signatory to allow to sign specified document\n    * @param fullName Full name of a signatory that can be used to identify a person\n    * @param description Arbitrary description of a signatory or their role (i.e. director, employee, seller, etc.)\n    *\n    * returns bool\n    */\n    function addSignatory(\n        string calldata documentHash,\n        address signatoryAddress,\n        string calldata fullName,\n        string calldata description\n    ) external\n    documentExist(documentHash)\n    onlyDocumentOwner(documentHash)\n    signatoryDoesNotExist(documentHash, signatoryAddress)\n    returns (bool) {\n        documents[documentHash].signatories.push(\n            Signatory({\n                fullName: fullName,\n                description: description,\n                signatoryAddress: signatoryAddress,\n                signedAt: 0\n            })\n        );\n        documents[documentHash].addedSignatories[signatoryAddress] = true;\n        emit SignatoryAdded(documentHash, signatoryAddress);\n\n        return true;\n    }\n\n    /**\n    * Add signature to the document specified by a document hash.\n    *\n    * @param documentHash Hash of a document to sign\n    *\n    * returns bool\n    */\n    function signDocument(string calldata documentHash)\n    external documentExist(documentHash) signatoryExist(documentHash, msg.sender) returns (bool) {\n        // TODO: Check if signatory already signed the document\n        // Mark document as signed\n        documents[documentHash].signatures[msg.sender] = true;\n\n        // Update signature timestamp\n        Signatory [] memory signatories = documents[documentHash].signatories;\n\n        for (uint i = 0; i < signatories.length; i++) {\n            if (signatories[i].signatoryAddress == msg.sender) {\n                documents[documentHash].signatories[i].signedAt = block.timestamp;\n            }\n        }\n\n        emit DocumentSigned(documentHash, msg.sender);\n\n        return true;\n    }\n\n    /**\n    * Get signatories added to the document.\n    *\n    * @param documentHash Hash of a document of which signatories are requested\n    *\n    * returns address []\n    */\n    function getSignatories(string memory documentHash) public view documentExist(documentHash)\n    returns (address [] memory) {\n        Signatory [] memory signatories = documents[documentHash].signatories;\n        address [] memory addresses = new address [] (signatories.length);\n\n        for (uint i = 0; i < signatories.length; i++) {\n            Signatory memory signatory = signatories[i];\n            addresses[i] = signatory.signatoryAddress;\n        }\n\n        return (addresses);\n    }\n\n    /**\n    * Get signatory information.\n    *\n    * @param documentHash Hash of a document related to the signatory\n    * @param signatoryAddress Address of a signatory of which info is requested\n    *\n    * returns (string fullName, string description)\n    */\n    function getSignatoryInformation(string memory documentHash, address signatoryAddress)\n    public view documentExist(documentHash) signatoryExist(documentHash, signatoryAddress)\n    returns (string memory, string memory) {\n        Signatory [] memory signatories = documents[documentHash].signatories;\n\n        string memory signatoryFullName;\n        string memory signatoryDescription;\n\n        for (uint i = 0; i < signatories.length; i++) {\n            Signatory memory signatory = signatories[i];\n            if (signatory.signatoryAddress == signatoryAddress) {\n                signatoryFullName = signatory.fullName;\n                signatoryDescription = signatory.description;\n            }\n        }\n\n        return (signatoryFullName, signatoryDescription);\n    }\n\n    /**\n    * Get document signatures in form of addresses of the signatories who signed the specified document.\n    *\n    * @param documentHash Hash of a document of which to retrieve signatures\n    *\n    * returns address []\n    */\n    function getSignatures(string calldata documentHash) external view documentExist(documentHash) returns (address [] memory) {\n        uint256 totalSignatories = documents[documentHash].signatories.length;\n        address [] memory signatures = new address[](totalSignatories);\n        for (uint i = 0; i < totalSignatories; i++) {\n            Signatory memory signatory = documents[documentHash].signatories[i];\n            if (documents[documentHash].signatures[signatory.signatoryAddress] == true) {\n                signatures[i] = signatory.signatoryAddress;\n            }\n        }\n\n        return signatures;\n    }\n}\n",
  "sourcePath": "/home/david/blockchain/blockchain-developer-bootcamp-final-project/smart-contracts/document-signer/contracts/DocumentSigner.sol",
  "compiler": {
    "name": "solc",
    "version": "0.5.16+commit.9c3226ce.Emscripten.clang"
  },
  "schemaVersion": "3.4.3",
  "updatedAt": "2021-11-20T00:03:31.933Z",
  "devdoc": {
    "methods": {
      "addDocument(string,string,string,string)": {
        "params": {
          "algorithm": "Algorithm that the document is hashed with    * returns bool",
          "description": "Arbitrary description of a document",
          "documentHash": "Hash of a document to add",
          "name": "Name of a document"
        }
      },
      "addSignatory(string,address,string,string)": {
        "params": {
          "description": "Arbitrary description of a signatory or their role (i.e. director, employee, seller, etc.)    * returns bool",
          "documentHash": "Hash of a document to check",
          "fullName": "Full name of a signatory that can be used to identify a person",
          "signatoryAddress": "Address of a signatory to allow to sign specified document"
        }
      },
      "getSignatories(string)": {
        "params": {
          "documentHash": "Hash of a document of which signatories are requested    * returns address []"
        }
      },
      "getSignatoryInformation(string,address)": {
        "params": {
          "documentHash": "Hash of a document related to the signatory",
          "signatoryAddress": "Address of a signatory of which info is requested    * returns (string fullName, string description)"
        }
      },
      "getSignatures(string)": {
        "params": {
          "documentHash": "Hash of a document of which to retrieve signatures    * returns address []"
        }
      },
      "signDocument(string)": {
        "params": {
          "documentHash": "Hash of a document to sign    * returns bool"
        }
      }
    }
  },
  "userdoc": {
    "methods": {
      "addDocument(string,string,string,string)": {
        "notice": "Add new document to the smart contract storage."
      },
      "addSignatory(string,address,string,string)": {
        "notice": "Add new user (signatory) to the smart contract and allow them to sign a specified document. Note: Only owner of a document can perform this action."
      },
      "getSignatories(string)": {
        "notice": "Get signatories added to the document."
      },
      "getSignatoryInformation(string,address)": {
        "notice": "Get signatory information."
      },
      "getSignatures(string)": {
        "notice": "Get document signatures in form of addresses of the signatories who signed the specified document."
      },
      "signDocument(string)": {
        "notice": "Add signature to the document specified by a document hash."
      }
    },
    "notice": "Document Signer Smart Contract"
  }
}